:10000000F8190020710F0000475500005D0F000037
:100010005D0F00005D0F00005D0F00005D0F000030
:10002000000000000000000000000000DD100000E3
:100030005D0F000000000000751000005D0F000063
:100040007512000075120000751200007512000094
:100050007512000075120000751200007512000084
:100060007512000075120000751200007512000074
:100070007512000075120000751200007512000064
:1004C80053B94AB9002908BF00281CBF4FF0FF31B3
:1004D8004FF0FF3000F00CB8ADF1080C6DE904CE18
:1004E80000F008F8DDF804E0DDE9022304B0704705
:1004F800704700BF2DE9F04786468C460846089E9F
:10050800154674461946002B40F0C1808542B2FA60
:1005180082F245D94AB1C2F1200300FA02FC9540A3
:1005280094402EFA03F343EA0C0C4FEA154EA8B296
:10053800230CBCFBFEF80EFB18CC08FB00F943EAC1
:100548000C43994528D9EB1808F1FF3704D299458F
:1005580002D9A8F102072B44A3EB0903A4B2B3FB09
:10056800FEFC0EFB1C330CFB00F044EA0344A042E3
:1005780014D92C190CF1FF3304D2A04202D9ACF1E2
:1005880002032C44241A43EA07401EB1D440002336
:1005980034607360BDE8F0874746DDE76346F1E7FE
:1005A80092BB431B01214FEA154EAFB2200CB3FB9F
:1005B800FEFC0EFB1C330CFB07F840EA034398458E
:1005C80061D9EB180CF1FF3004D2984502D9ACF18F
:1005D80002002B44A3EB0803A4B2B3FBFEFC0EFB02
:1005E8001C330CFB07F744EA0344A7424DD92C19E6
:1005F8000CF1FF3304D2A74202D9ACF102032C4418
:10060800E41B43EA0040C0E7C2F120039540944050
:1006180020FA03F12EFA03F34FEA154E9040AFB2D9
:100628000343B1FBFEFC0EFB1C10190C0CFB07F876
:1006380041EA0041884522D969180CF1FF3004D2FB
:10064800884502D9ACF102002944A1EB08019BB20C
:10065800B1FBFEFC0EFB1C110CFB07F743EA014340
:100668009F420ED9EB180CF1FF3104D29F4202D9F8
:10067800ACF102012B44DB1B41EA004193E76046E1
:10068800E3E76146F7E76046A4E76346B8E78342D5
:1006980006D916B9002108467CE7C6E900E0F9E763
:1006A800B3FA83F78FB9834201D3724508D8BEEBFA
:1006B800020460EB030301209C461EB9002169E790
:1006C8003846FAE7C6E9004CF8E7C7F1200CBB400A
:1006D8000EFA07F522FA0CF42EFA0CF1BA401C4374
:1006E80020FA0CF3B8404FEA144901431FFA84FE7C
:1006F800B3FBF9F809FB18300B0C08FB0EFA43EAB8
:1007080000439A4540D9E31808F1FF3004D29A45CE
:1007180002D9A8F102002344A3EB0A0389B2B3FB70
:10072800F9F809FB183308FB0EFE41EA03418E4530
:100738002CD9611808F1FF3304D28E4502D9A8F1EB
:100748000203214443EA0040A1EB0E01A0FB0298FA
:100758004145CE46434602D306D14D4504D2013821
:10076800B9EB020E68EB0403002EA7D0B5EB0E021E
:1007780061EB030101FA0CFC22FA07F3F9404CEA99
:100788000303C6E9003199E74046C5E74346D9E780
:1007980008B501F0CDFB044AD2F8183523F00E0352
:1007A800C2F8183504F0BDFD00F00C50014B1B6871
:1007B800184700BFF000002030B585B004460D464C
:1007C80010220021684605F056FE02238DF80230FB
:1007D800044B2A4621466846019304F057FA05B0AF
:1007E80030BD00BFB507000080B505460E46174668
:1007F800984602F0CFFF034605F0B8FE0446DFF83E
:100808001890424649F8003039463046A84754F80F
:10081800090000F015FC00BF080000002DE9F047B2
:10082800058B04462807904611D4022905F00705D0
:1008380040F0CC80204604F07EFD78B10138218B51
:10084800042811D8DFE800F0C2106D859500012951
:100858000CBF45F0100545F02005258388F3118865
:10086800BFF36F8FBDE8F08701F0070AAA4500F0D3
:10087800A5800027B9463E46A368002B00F0BC803F
:1008880041F00801218388F31188BFF36F8FA168B5
:10089800002900F0BA800D68002900F0B6803346C0
:1008A80052462046D1F80480C047002D76D02B68E8
:1008B80029461D46F0E701F007035A1F012A1BD8F5
:1008C800002221F00701062B276889B2C4E900221B
:1008D80009D13B4603E0628B013262831B68002B1F
:1008E800F9D141F002012046218304F024FD0028BB
:1008F8007AD041F0200176E0042B0AD121F00701DB
:1009080089B22046218304F016FD10B141F0200180
:100918002183218B01F0070AAA454FD00027B94649
:10092800AAE7236921F0070141F00601062DD3F853
:10093800009021832DD1B9F1000F3FD041F008017B
:10094800218388F31188BFF36F8F20463949C84740
:1009580029E021F00701236941F0040189B2042D3F
:10096800D3F804902183E6D000274FF0040A3E46CE
:1009780082E721F00701236941F0050189B2052DBD
:10098800D3F808902183D6D000274FF0050A3E46B9
:1009980072E700274FF0060A3E466DE72B4687E7C9
:1009A800B9F1000FD1D1EFF31188202383F3128816
:1009B800BFF36F8F238B23F008032383258BEA066D
:1009C8002ED525F01003238305F007056669218BD2
:1009D800002EBFF670AF00232768C4E9003321F06A
:1009E800070141F001012183218B4FF0000901F03B
:1009F800070AAA457FF440AF002F9CD041F00801B8
:100A0800218388F31188BFF36F8F002FC8D03D680A
:100A1800394633465246204604F0B9FC2F46F4E7DF
:100A2800AB067FF51BAF25F02003238305F00705F0
:100A380000E700BFC3530000014B0360002070476C
:100A4800F86F000008B5044804F05EFC034804F0A1
:100A58005BFC002008BD00BFE470000019710000B5
:100A680008B50348034A0021121A04F060FD08BDC6
:100A7800C0020020B80C0020074808B5074A0849FA
:100A8800121A04F056FDBDE808400648064A074910
:100A9800121A04F04EBD00BF60000020BC02002006
:100AA800E07500006000002060000020E075000094
:100AB80038B505460C4699B1D1E901230F480968B4
:100AC80004F022FCD4E90423E1680D4804F01CFC7E
:100AD800E1690C4804F018FCA1690B4804F014FC07
:100AE800012D05D1EFF305810848103904F00CFCFD
:100AF80021462846BDE8384002F00CB9477100008D
:100B080077710000A7710000B7710000E67100005E
:100B180030BFFFF7FDBF00BF2DE9F04105460B4E82
:100B2800DFF82C80324606EB0807CC1B2046094923
:100B380005F094FCA01942460021083C05F09BFCF6
:100B4800C5F8B44007F10800BDE8F08100000000D6
:100B580004000000B86F0000054B5A699B689A4270
:100B68001FBF044A536843F080535360704700BF67
:100B78004806002000ED00E010B5204C204804F0A5
:100B8800C3FBA36A990137D51E4804F0BDFB1E209C
:100B9800A36ADA0103D51C4804F0B6FB1F20174CE2
:100BA800A36ADB0203D5194804F0AEFB0220A36A4E
:100BB8001C0303D5164804F0A7FB21200F4CA36A99
:100BC800590303D5134804F09FFB2220A36A9A0314
:100BD80003D5114804F098FB2320084CA36ADB03D3
:100BE80003D50E4804F090FB2420A36A6FEA034360
:100BF8006FEA1343A36210BD1D20C9E700ED00E0B2
:100C0800FA7100001372000027720000427200009F
:100C18006D7200008C720000B2720000CD7200008C
:100C280070B5244C064624480D4604F06DFBA36AB3
:100C3800D90435D5214804F067FB1720A36A1A05A3
:100C480003D51F4804F060FB18201A4CA36A9B05C3
:100C58000FD51C4804F058FBA16BA36A180407D5EC
:100C6800194804F051FB1EB1A36A23F40043A362A0
:100C78001920104CA36A590503D5144804F044FB05
:100C88001A20A36ADA050DD5114804F03DFB1B2094
:100C9800084A936A43F47F43936200232B7070BD24
:100CA8001620CBE7A36A9B04F2D50A4804F02CFB74
:100CB8001C20EDE700ED00E0F97200001073000061
:100CC8002273000036730000507300006673000042
:100CD800827300009B73000070B5264C06462648B8
:100CE8000D4604F011FBA36AD80640D5234804F04A
:100CF8000BFB1120A36A190703D5214804F004FB54
:100D080012201C4CA36A9A070FD51E4804F0FCFA5F
:100D1800616BA36A1B0607D51B4804F0F5FA1EB1E0
:100D2800A36A23F08003A3621320124CA36ADE0790
:100D380003D5164804F0E8FA1420A36A9C0603D5E4
:100D4800134804F0E1FA15200A4B9A6AD10658BFF5
:100D58009A6A9A6A920642BF5A6A22F400525A6202
:100D68009A6A42F0FF029A6200232B7070BD10202D
:100D7800C0E700BF00ED00E0CB730000E2730000A5
:100D880022730000167400002F74000046740000DF
:100D98009B7300002DE9F0415B4B04465F6800251A
:100DA8008AB0C7F3080685F31188BFF36F8F02F086
:100DB8007F43B3F17F4F06D102F00C03082B13D108
:100DC800524804F0A1FA00252C464FF00008F31E03
:100DD8008DF80780092B00F28580DFE803F00A7997
:100DE8007D7583838383838110074CBF0C4601255F
:100DF800EBE74748444E04F087FA8DF80780F36A1A
:100E08009A0704D5434804F07FFA00232FE0F36AD9
:100E1800002B01DA4048F6E7F36A5B00F5D53F4856
:100E280004F072FA7369A26943F480737361BFF3C3
:100E38004F8FBFF36F8F736932F8022C23F48073DE
:100E48007361BFF34F8FBFF36F8F4DF602739A42F2
:100E580008D0B36ADBB24BB301200DF10701FFF7ED
:100E68003BFF33E021682E4804F04EFA23689DF8D2
:100E78000720C2B902AE04F1200732462068616833
:100E8800083403C2BC421646F7D1099AB5B3C2F377
:100E9800080121B96FEA52226FEA422209921846E4
:100EA80002A9FFF705FE0AB0BDE8F081B36A13F4A2
:100EB8007F4F05D001200DF10701FFF7B1FE05E0D6
:100EC800B36AB3F5803FA0D3FFF756FE0346CEE7DB
:100ED80000200DF10701C2E700200DF10701ECE742
:100EE800104890E7104B17F4F87F1049104818BFC6
:100EF8001946A6F1100204F007FA86E722F4FF72F9
:100F080022F00102CAE700BF00ED00E0947400007F
:100F1800C0740000D8740000FA740000097500005D
:100F280029750000467500007B7400006674000097
:100F38006B750000064B5A6942F010025A615A69F3
:100F480042F480625A615A6922F008025A61704775
:100F580000ED00E0EFF30880EFF3098101B5724678
:100F6800FFF718FF01BD00BF002080F31488BFF30E
:100F78006F8F002080F30A8880F30B88104880F375
:100F8800088800200F49087001F03EF800200E493B
:100F98000860BFF34F8F00F02DF8202080F31188F0
:100FA8000A484FF40061401880F30988EFF3148071
:100FB8000221084380F31488BFF36F8F00F0F0F824
:100FC800F8190020B50C002094ED00E0B80C0020C2
:100FD800002318460649D1F89020C2F3072293420D
:100FE80000DB7047C1F89830C1F8A0000133F6E77C
:100FF80000ED00E010B572B6002484F31388FFF703
:10100800E7FF23464FF0FF300C4A03F1200101337C
:10101800102B42F82100F8D100234FF0FF30074A87
:1010280003F160010133102B42F82100F8D162B6B8
:10103800BFF34F8FBFF36F8F10BD00BF00E100E01B
:10104800084B9B6883420BD1EFF3058343B1064BF2
:101058005A6842F080525A605A6A22F400425A6230
:1010680002F09EBB4806002000ED00E016498A68A1
:101078004FF030001044EFF3098C80E8F01F202077
:1010880080F31288BFF36F8F104F4FF000664A69E4
:101098008A603E60D2F8B4000D4C2060D2F8B800E7
:1010A8000023C2F8B83080F3118802F1300090E8CC
:1010B800F01F8CF3098802F1000004B504F04AFA25
:1010C800BDE80440704700004806002004ED00E039
:1010D800880500201EF0040F0CBFEFF30880EFF323
:1010E8000980816911F8021C0229FFD001B57246F6
:1010F80004F021FA01BD00BF00B2002807DB01237C
:101108004109034A00F01F00834042F8213070472C
:1011180000E100E000B200280CDB01220649430987
:1011280000F01F008240203341F82320BFF34F8F87
:10113800BFF36F8F704700BF00E100E0054B420925
:1011480053F82220012300F01F0003FA00F010409A
:10115800704700BF00E100E000B2002801F1010182
:10116800ACBF00F16040064B4FEA4111C9B2ABBFBA
:1011780000F5614000F00F0080F800131954704723
:1011880014ED00E0044B054A23F07F039360BFF39E
:101198004F8FBFF36F8F70470000000000ED00E035
:1011A80008B5FFF7EFFF074AD2F8883023F4700339
:1011B800C2F88830FFF754FCFFF75EFC00F048F8EF
:1011C80001F070FE00ED00E042F8203C009B0B4966
:1011D80042F81C3C019B21F0010142F8183C029B9B
:1011E80042F8081C42F8143C4FF0807342F8043C63
:1011F8000023203A0265C0F8B8307047F1070000B4
:1012080000B50E4B15469860D0F8B4200C4B0E462E
:101218001A60D0F8A43083F30B882C4686F309882B
:101228000020044B98472046002100220023024C4E
:10123800204700006D550000F10700004806002017
:10124800880500201022014B1A61704700ED00E06C
:10125800002320210448C2180133B3F5917F82F896
:101268000013F8D1704700BF00E100E008B5EFF3C4
:101278000583064A103B02EBC30152F83300496864
:101288008847BDE80840FFF767BC00BF2466000038
:101298001FB5094C094A23460121094800F0FAF80C
:1012A80000230393074B0121E41A01A80193029438
:1012B80000F0FAF804B010BD00FC02200000002085
:1012C800F86F0000C002002010B50C7A0B6804F01B
:1012D8001F0223F01F031A43CB68640923F01F037E
:1012E800054943EA440343F00103C1F89800C1F8F3
:1012F8009C20C1F8A03010BD00ED00E010B5074BF0
:10130800D3F89030C3F30723013B984202D8FFF784
:10131800DBFF10BD6FF01500FBE700BF00ED00E03C
:101328002DE9F04F0F46144606464FF000084D4D84
:1013380085B0B84580F29280D6F80490B9F1000FD4
:1013480036D0B9F11F0F40F2878019F01F0F40F017
:101358008380D6F800A01AF01F0F7DD1504604F004
:1013680024F9834609EB0A00013804F01EF9834585
:1013780072D11BF1160F6FD05C456DDDC5F898B0C2
:10138800D5F89C10C5F898B0D5F8A03021F01F0109
:1013980043F01F0AD6E900321A44994202F1FF3994
:1013A8001ED1CA4508D131465FFA8BF004F006F920
:1013B80008F101080C36BCE73146C5F898B0D5F8F5
:1013C8009C3022F01F0203F01F031343C5F89C3022
:1013D800E0B204F0F3F810F1160F3DD0441CE7E733
:1013E800C5F898B0D5F8A020013B23F01F0302F000
:1013F8001F021343CA453146E0B2C5F8A030E8D011
:1014080004F0DCF810F1160F26D0C5F898B0D5F81E
:101418009C209DF808300AF1FF3A62F304038DF826
:101428000830D5F8A0309DF808205B0863F3471210
:101438008DF80820D6E900321344009323F01F03E7
:101448005344A3EB0903013023F01F036946C0B2DC
:101458000393FFF753FFBEE76FF01504204605B06E
:10146800BDE8F08F00ED00E00522044BC3F894209E
:10147800BFF34F8FBFF36F8F704700BF00ED00E0E1
:10148800BFF35F8F0022024BC3F89420704700BF60
:1014980000ED00E010B5034C2278FFF741FF207003
:1014A80010BD00BFB40C00202DE9F74F294D8A4626
:1014B80006464FF00008AB46274FD0451BDAD6F852
:1014C8000490B9F1000F3FD031680846019104F04B
:1014D8006CF80199044609EB0100013804F065F83D
:1014E80084424FF014021D4B08D002FB08F36FF042
:1014F80015024BF8032003B0BDE8F08F14F1160F66
:101508002C60F8D01978A142F5DD02FB08B0C7F8C5
:101518009840C7F89840D7F89C4000F10801007B34
:1015280064F304000871D7F8A0000C79400860F350
:1015380047140C71D7F89C1021F01F016960D7F887
:10154800A01021F01F01296108F1010814350C369B
:10155800B3E700BF8C05002000ED00E0B40C0020CC
:10156800F0B55249524CD1F890302568C3F307239F
:101578009D4287B000F296800020FFF781FF4D4B17
:10158800C1F8C030854216D14B4C01A82570FFF731
:1015980053FA00250646494FAE4213D1002023785E
:1015A8004249D1F89020C2F30722934274DBFFF737
:1015B8005BFF002043E0616801EB0011FFF784FE48
:1015C8000130DFE70199280101EB0513DA683A4099
:1015D800B2F5800F42D007D8B2F5801F15D0B2F50A
:1015E800001F2ED00135D7E7B2F1006F43D0B2F11A
:1015F800805FF7D15A689B680958013B22F01F00A9
:10160800034423F01F03012032E05A689B680958FD
:10161800013B22F01F0003440120844623F01F03EE
:1016280040EA4C10CDE902218DF8100002A920787B
:101638000593FFF763FE00282ADA6FF0150007B05C
:10164800F0BD5A689B680958013B22F01F0003440B
:101658004FF0020C012023F01F03E1E75A689B6852
:101668000958013B22F01F000344062023F01F0302
:101678004FF0000CD4E75A689B680958013B22F0E8
:101688001F0003444FF0030C012023F01F03C7E79A
:10169800237801332370A5E7C1F89830C1F8A0007A
:1016A80001337EE74FF0FF30C9E700BF00ED00E0EF
:1016B80004700000AAFF4400B40C00200000F0FFF2
:1016C80008B50649064821F00701C1F1005202F5A4
:1016D8003F3203F0BFFD002008BD00BFFF19002006
:1016E800A005002008B5244A244B1A6000F082F8AF
:1016F8004FF47A612248D0F82436C3F30802C3F3C2
:1017080009434B4382F480721E49883201FB02333D
:101718004FF4FA215B00B3FBF1F201FB12331A49D3
:10172800B3F57A3F28BF0132C1F80429D0F8203632
:101738004FF47A60C3F30802C3F30943434342F208
:101748001C5082F4807202F2172200FB02334FF41D
:101758007A701B0AB3FBF0F200FB12330020B3F5DA
:10176800FA7F4FF0010328BF0132C1F81C27C1F8E6
:101778000009C1F8003608BD0020A107E0010020DB
:1017880000C0FF00F82A00800000125048B1054B45
:10179800054A1B68B3FBF2F35843044B43F00103BB
:1017A80018477047E001002040420F00D06F00004A
:1017B80008B500224FF440314FF0005000F096FC7D
:1017C8000A4AD2F8183523F00103C2F818354FF049
:1017D800FF32074BC3F80026012203F59033C3F804
:1017E8000025BFF34F8F20BFFDE700BF00F00C506E
:1017F80000E010500122024BC3F80424704700BFD8
:10180800002008E0084B70B5C31A0D4607499B1025
:10181800044659434022064803F0F2FE2B4601468F
:101828002046BDE870401847C0050020B76DDBB6FC
:10183800D0650000402373B50B4C0093041B0B4686
:101848000D460A49A41061430646094A094803F0AF
:1018580003FF011E05DA30462B4602B0BDE8704092
:10186800184702B070BD00BFC0050020B76DDBB6D9
:10187800CB560000D0650000F8B5002201210546CE
:101888004FF48770FFF768FC0F4800F03BFC0446F4
:10189800B8B900F057FC2F690C49384603F09AFD97
:1018A800031E09DB01263E642D69084905F11C0069
:1018B80003F090FD031E02DA1C462046F8BDEE64D4
:1018C800FBE76FF00404F8E7051A00002C7000002D
:1018D8001FB500220123CDE902236B46084ACDF843
:1018E80000D0CDF804D003F0E5FE002805DB43F670
:1018F80009520023684601F037FC05B05DF804FB87
:10190800DD56000010B5EFF31184202383F312880D
:10191800BFF36F8F074A136823F00201DB071160DA
:1019280002D4012003F0A0FF84F31188BFF36F8F66
:1019380010BD00BF100600200C22104B014602FB10
:101948000033002030B4D3E90E529863EFF31180CE
:10195800202484F31288BFF36F8F1C6C04F0C0043A
:1019680044F002041C6480F31188BFF36F8F1DB12B
:101978002B4630BC0248184730BC7047C0050020D1
:10198800D065000010B4EFF31182202383F312888E
:10199800BFF36F8F1648016841F002040460C8075E
:1019A80007D482F31188BFF36F8F012010BC03F0B6
:1019B80053BF1049D1F80C14C903F2D5EFF31180C5
:1019C80083F31288BFF36F8F0B490B6C03F0C003CE
:1019D80043F002030B6480F31188BFF36F8F82F327
:1019E8001188BFF36F8F002010BCFFF7A5BF00BFA1
:1019F8001006002000E01050C0050020022808D082
:101A0800042808D1044B186C10F0070003D1FFF725
:101A180093BF0120FBE77047C0050020C3B21C201C
:101A2800014A03FB00207047C00500202DE9F04162
:101A3800012207463449D1E8EF3FC1E8E02F0028EA
:101A4800F9D133B9314932484B60CB608A6003F031
:101A5800D4FC7B1E012B28D8012F06D12D4BD3F89F
:101A6800503403F00303012B1FD004F083F905461B
:101A7800E8B9294B1B78D3B104220646254BC3F895
:101A88000823244CDFF89480D4F84C24D4F84C3440
:101A9800D20315D503F00303012B01D0012F0FD179
:101AA8006DB386F31188BFF36F8FBDE8F081EFF354
:101AB8001186202383F31288BFF36F8F0125E0E797
:101AC800C5B1304603F062FDD4F8403413F0FF038B
:101AD800DAD1D4F80821002AD6D0C4F80831D4F8CD
:101AE80008314FF480420123C4F84034C8F8A021DB
:101AF8002361C9E70021202004F0B2F9E4E70422B9
:101B0800044BC3F80423D0E7BC050020AC05002033
:101B1800DC05002000E01050B50C002000E100E0DA
:101B2800F0B544681646A068227C01F01F0587B00E
:101B380045EA421500286CD0B6F5001F04D12946A5
:101B480004F0D9F8002055E06268607CB6F5800F93
:101B580050624FF0000001AA0190506037D1B3F1F4
:101B6800007F14BF052304238DF804300023CDE93A
:101B780004230393E3680DF1030723FA01F111F03D
:101B8800010139D1B6F1A07F36D105F01F036A09EA
:101B980003F1200326D0012A3ED1214A52F82330EE
:101BA800DB0729D43A462946A06804F037F81630EE
:101BB8001AD002972946A06803AA03F073FF0028E9
:101BC80018DB01222946A06804F043F8BAE7B3F10C
:101BD800C06F05D0B3F1007F14BF01230223C3E710
:101BE8000323C1E70F4AD9E73946A06800F03AFD58
:101BF8000028DEDA07B0F0BD3A462946A06804F0AE
:101C08000DF80028D6D19DF80310A06800F020FD3B
:101C1800D0E76FF08500EDE751F82330FFDE00BF15
:101C280000820D5000A010504209012A034670B5E9
:101C380001D0BAB170BD0D4E326951680029F9D092
:101C4800012503F01F030C689D400029F2D08A6823
:101C58002A4002D030464B6898472CB12368214669
:101C68001C46F2E7024EE7E72346F8E7086600005D
:101C7800EC65000038B54568A868C0B103F0E1FF1D
:101C88000146A0B9A86800F0ABFC044688B9024632
:101C98000949A86803F0BFFF22460121DB20FFF7AE
:101CA8005BFA2246012140F20D10FFF755FA002099
:101CB80038BD6FF00400FBE7311C00002DE9F0434C
:101CC80040F206364768D00648BF4FF0030C3B7C0D
:101CD80002EA060658BFC2F3401C87B001F01F0590
:101CE800B6F5837F144645EA43158DF803C044D002
:101CF8000DD8062E43D005D8A6B1022E12D06FF00B
:101D0800150037E0B6F5807FF9D101260AE040F2E8
:101D18000222964235D0B6F5407F34D0B6F5007F22
:101D2800EDD104260123220303FA01F12DD57B68A6
:101D38005960B86880BB05F01F036D092AD0012DD2
:101D480073D13C4A02EB830284F48033D2F88010CA
:101D5800C3F30043C4F3404444EA430421F47061EC
:101D680044EA8C0421F00F0144EA06230B43C2F82D
:101D78008030002007B0BDE8F0830926D2E70826A6
:101D8800D0E70626CEE70526CCE7630344BF7B6889
:101D98009960CEE7284AD5E729460DF1020203F0FB
:101DA8003DFF14F4403F80460CD12946B86803F043
:101DB8004EFFB8F1000FDCD19DF80210B86800F0B2
:101DC80047FCD6E74FF0000901ABCDE90199CDE911
:101DD8000439CDF80C902946B86803AA03F062FECE
:101DE8004845C6DB14F4003314D09DF8033084F45E
:101DF8008034C4F300448DF80E308DF80C608DF8F3
:101E08000D404B462946B86803AA00F06FFB00282E
:101E1800CFDAAEE7CDE904330DF103030393294686
:101E2800B86803AA03F03EFEF1E7203350F82330E8
:101E3800FFDE00BF00820D5000A0105070B40D4CA2
:101E4800D4E90065901B63EB0501400940EAC160D5
:101E58004101891945EBD065C4E900150024002526
:101E68000549C1E90023054BC3E9004570BC01F0F1
:101E78009BBE00BFE0020020C8020020D80200205C
:101E880008B500220121E420FFF766F9164A002070
:101E9800D2F8183723F44033C2F8183700F04CFD55
:101EA800002820DB0120114900F0D2FD00281ADBB0
:101EB80000F01AFD0E4B20F01F00C3E900010D4B86
:101EC8000022C3E900014FF0FF304FF0FF310A4B09
:101ED800C3E90001094B0A49187A00F017FD672287
:101EE8000020084B1A6008BD00200E50DC010020BD
:101EF800E0020020C0020020C8020020D401002017
:101F0800451E00002C06002008B500F0EDFC064A2E
:101F1800D2E90032C01A054B61EB0201C3E90001A6
:101F2800400940EAC16008BDE0020020D802002054
:101F380010B500F0DFFD0120FFF770FD03F0B4FAE3
:101F4800BDE81040054B064A1B684FF47A70B3FB96
:101F5800F2F35843034B43F001031847E001002014
:101F680040420F00E06F0000F7B5224B0146224FB8
:101F7800187A224BD7E90056D3E900239E4208BFBE
:101F8800954211D1B1F1806F0ED24901012938BFB4
:101F9800012101224D1946F10006C7E9005603B098
:101FA800BDE8F04000F032BE154BDFF858C0D3E969
:101FB8000043DCE9002CA41843EB0C0C4FF0200E76
:101FC80022466346C1FB0E23954276EB0301C7E91F
:101FD80000230DD2291B66EB0C04C82974F10004F8
:101FE800B4BF01210021009100F0D8FD03B0F0BD7D
:101FF8000021F8E7D4010020D0020020C802002008
:10200800E0020020D80200200123274AC2F8003845
:10201800A2F55722D2F80024244AD2F84023272ACE
:1020280004BF234AC2F80C34224AD2F88C3043F455
:102038004063C2F88C300022D30003F57F0303F518
:102048004043D3F8001401310AD0D3F8001439B151
:10205800D3F800140132D3F80434402A0B60EBD1D2
:10206800154BD3F80026D20719D4144BD3F81825EA
:1020780022F00302C3F81825D3F8182542F003020A
:10208800C3F818250B4AD2F88C3043F44063C2F8E1
:102098008C300B4AD2F80034012BFBD070476FF01C
:1020A8000102C3F80026E0E70000125000C0FF005C
:1020B8000030055000ED00E000E0105000E0045052
:1020C80000900450084B000103442AB1D3F80825B6
:1020D8001143C3F808157047D3F8082522EA01020E
:1020E800C3F80825704700BF00F00C50014B03F0FF
:1020F80094BB00BFCD200000014B1B68184700BFF0
:102108003006002010B50C4C237993B901232371B4
:102118000A4B0028206018BF184600F0F3F850B9A1
:1021280023680748002B08BF1846BDE8104000F098
:1021380035B86FF0770010BD30060020012100008F
:102148005D58000008B5074B1B6853B14FF4877002
:10215800FEF7F4FF28B9BDE808404FF48770FEF792
:10216800CBBF08BD3006002038B504230A4C42F224
:102178001075C4F80833012363610023C4F80831DB
:10218800D4F80831D4F84C34DB0304D5012003F02B
:102198000FFB013DF6D138BD00E01050064A137917
:1021A8003BB9012110601171044A1846C2F8403445
:1021B80070476FF0770070473806002000E0105035
:1021C80010B51D4B1D4CD3F84C14D3F84C2411F406
:1021D800803F18D002F00302012A03D00AB1FFF7AA
:1021E800C3FF0022144BC3F840240022C3F808217F
:1021F800D3F8082101221A61226872B9D3F808219C
:10220800002AFBD011E0D3F84824D107E9D5D3F848
:1022180050249207E3D422681AB10422C3F8042395
:1022280010BDD3F80821002AFBD00022C3F80821EA
:10223800D3F80831F4E700BF00E01050380600205A
:10224800F8B50125184C194ED4F80C3303F00C03DB
:1022580003B9F8BDB3FA83F30027C3F11F039A004B
:1022680002F5807292B202F1A04202F5871217605D
:1022780005FA03F1022B1268D8B2C4F8081310D17A
:10228800D4F84C34D4F84C349B070AD10423C4F84E
:102298004054C4F804332561D4F80C3303F00C031C
:1022A800D6E733689847F7E700E010503806002073
:1022B800712238B5104B0021C3F80823012242F2DD
:1022C80010745A60C3F80011D3F800110B490A4D75
:1022D800D1F84013272908BFDA60D5F80C3413F475
:1022E800803305D0012003F063FA013CF5D138BDF5
:1022F800034A5371FBE700BF00E0105000C0FF0025
:1023080040060020054B0246187918B91A600122C8
:102318001A7170476FF07700704700BF40060020C1
:102328000022164BC3F81021D3F81011C3F8182156
:10233800D3F81811C3F81421D3F814111049D1F89F
:102348004013272904BF01219960C3F80021D3F85D
:10235800002101221A600B4A126852B9074BD3F8C0
:102368000021002AFBD00022C3F80021D3F8003155
:1023780070477122C3F80423704700BF00E0105073
:1023880000C0FF0040060020F8B50126194C1A4D80
:10239800D4F80C3303F0710303B9F8BDB3FA83F32F
:1023A8000021C3F11F039A0002F5807292B202F174
:1023B800A04202F58712116006FA03F7042B12688F
:1023C800D8B2C4F8087308D0062B10D02B689847E9
:1023D800D4F80C3303F07103DEE702236B71C4F801
:1023E8001411D4F814312023C4F80433EEE76971CA
:1023F800ECE700BF00E0105040060020036803F03F
:102408001F025B09026004D0012B034818BF00209B
:1024180070470248704700BF00820D5000A010505E
:10242800034A4309D35C00F01F001844C0B2704748
:10243800B2750000034611F0010010B5CCB20BD103
:10244800A207C4F340000DD5074A106A586010620D
:10245800003818BF012005E004490A6A1A600A62B8
:10246800002AEDD010BD00BF00820D5000A0105012
:10247800F7B504460846FFF7D3FF06B204EB460655
:10248800B38A0D46DB072BD5204603F0E8FA294628
:10249800204603F054FA58B1204603F066FA0022A9
:1024A800276800B207EB8003C3F81025C3F810258E
:1024B8002946204603F082FA002101A8B18201953D
:1024C800FFF79CFF019B00EB8300D0F88020064BB0
:1024D800134043F00203C0F88030084603B0F0BD53
:1024E8006FF01500FAE700BFF0F0FCFF2DE9F043AC
:1024F800044685B0084616461D46FFF791FF0F466D
:10250800804636B3204603F025FA18B9204603F072
:1025180016FA28BB0FFA88F904EB4909B9F8143000
:1025280013F01C0F02D07378012B19D001238DF8FA
:102538000F3000233846CDE90063721CB31C0DF13F
:102548000F0103F0A4F9B9F8143043F00303A9F814
:102558001430002D40D03946204603F0FBF920B94D
:102568006FF0150005B0BDE8F083002229782368D4
:102578004FEA810C03EB8103C3F81025C3F810253B
:102588000FFA88F204EB4202938A23F4604323F0A3
:10259800200393826E78FEB12468A8786444D4F846
:1025A80010550E4B36042B40C4F8103541F6F07325
:1025B80006F4403603EA07130005D4F810553343F0
:1025C80000F4801003432B43C4F81035938A43EA80
:1025D800413343F0200393820020C3E70FE0ECFF70
:1025E80070B590F86C40054690F86D6044BB3E228B
:1025F8002146143003F03FFF2146134A2B6852F856
:1026080036608E4212D1002440F20D10C3F84441C6
:10261800D3F844210D4A934208BFDB20FEF76CFD36
:102628000123204685F86C30AB6570BDCAB29200B4
:1026380002F58070442A04BF1C501A580131E0E7A3
:102648006FF07700F1E700BF7070000000A00D5038
:1026580090F86D00024B03EB800003F0C5B800BF93
:10266800E401002010B5064B90F86D000C4603EB12
:10267800800003F09FF80028A4BF2070002010BD40
:10268800E40100202DE9F04F814659F804BB90F889
:102698006D40DBF814136B4BC9B241F4003180462E
:1026A80053F8342058468BB003F0B2F9810305463D
:1026B80036D50023CDE90833624B08A803EBC403E1
:1026C8005B6819460193FFF7B5FE042303EBC403C7
:1026D80003935D4B0DF1200A02930023029A0093A5
:1026E80012F8013B57490292039A02EBD3028A5C23
:1026F80003F0070322FA03F3DA0719D4009B0AF15F
:10270800040A9BB14FF400310022584603F080F9C7
:10271800019908A8FFF78EFE0028DAD125F40035C4
:102728000124002D78D10BB0BDE8F08F0123D5E747
:10273800009B464A13440493DAF800100029DDD0C0
:1027480091FAA1F1B1FA81F1049B1C7841EA441491
:102758002046FFF765FE08EB4000878AC808BB08DB
:10276800059301231AF8002001F0070103FA01F18B
:1027780022EA01020AF8002007A80794FFF73EFEA4
:10278800079A059B203250F82220C7F382065B0780
:102798003746C2F3014223D54846D6B221463A46C7
:1027A80003F0EDF807A80794FFF728FE079B2033EE
:1027B80050F82330C3F301439E4207D1002120463D
:1027C80003F0AEF83146204603F0AAF807A80794AC
:1027D800FFF714FE0122079B02FA03F30362ABE73B
:1027E800022A0DD10321204603F09AF806F00503CA
:1027F800012BEBD13A462146484603F0C0F8E5E7FD
:1028080002212046059203F08BF8032EF2D0059A98
:10281800032ADBD1022EECE795FAA5F3B3FA83F38A
:1028280004FA03F225EA020503F5A2725BF82220F6
:1028380008EB43034846B3F85C10C2F3014203F0C7
:102848009EF86EE770700000C2750000C275000047
:102858000123034A03FA00F0936803439360704727
:10286800600000200123044A03FA00F0936823EA79
:1028780000039360704700BF6000002073B50446F2
:102888000191EFF31186202383F31288BFF36F8F32
:102898000B4D019B6A6801A81340019302F08AFF5F
:1028A800002807DB01226B68824023EA02036B6081
:1028B8002070002086F31188BFF36F8F02B070BDBF
:1028C80060000020074B027AD3F8101521F00101AF
:1028D8000A43C3F810250268C3F8A4264268C3F85F
:1028E800AC26704700200E504FF0FF306FF040418B
:1028F80030B5054CD4E90023904271EB0305F9D3B8
:102908001046C3F3130130BD40270E5030B50C25D7
:10291800074B1C1894F8544005FB0433C3E9031211
:1029280018750123034A8340C2F8243330BD00BF21
:102938006000002000200E50F0B53D4D85B02C7889
:10294800002C6FD13B4A01AB07CA83E807003A491C
:102958001846D1F8102522F00202C1F81025FFF719
:10296800B1FF0723672202F001012144013BCCB2E9
:102978004FEA5202F7D1052C57D119464FF0010CF6
:102988002B4E00246720CFB204E00CFA02F220EAB2
:102998000200013490FAA0F25FFA84FEBE45B2FA52
:1029A80082F2F2D30131327505292A4482F8547033
:1029B80006F10C06E5D10121002420489A0801FA05
:1029C80002F212F0670F18BF1C500433302BF5D1F8
:1029D800E420FEF791FB184B1949D3F8102503F5AD
:1029E800C07322F00202C3F8902340F6FF72C3F8C6
:1029F800A82100221A60A3F5807004338B4202607C
:102A0800F8D101240C4B0F4A1C660F4B5D201B6844
:102A1800B3FBF2F358430D4B2343984700202C7027
:102A280005B0F0BD6FF07700FAE76FF08B00F7E7BD
:102A380060000020C06F000000200E5000210E50E2
:102A4800B0210E5040420F00E0010020F06F00005E
:102A580038B5254B0C46D3F8102595073DD4D3F847
:102A6800102542F00202C3F81025C0B1D3F8482758
:102A780012F0010202BFD3F8481741F00101C3F870
:102A88004817194BD3F84017D3F844174900F9D41D
:102A98002AB9D3F8482722F00102C3F84827134B74
:102AA800134A1B681049B3FBF2F303EB4313BBB1A2
:102AB800D1F84027D1F8445715F080450BD14FF095
:102AC800FF312046FFF7DAFE002803DB2078FFF706
:102AD800BFFE284638BD013BE9E76FF07700F9E70C
:102AE8006FF07300F6E700BF00200E50E0010020F1
:102AF80040420F002DE9F047264D67232E4656F831
:102B0800044F4FF00009E4434FF00108224F04F04E
:102B18006704C7F828335FFA89F1DCB9E420FEF7C7
:102B2800F9FA1D4BD3F8482722F00102C3F84827C9
:102B3800D3F8102522F00102C3F81025D3F8102588
:102B480022F00202C3F8102501225A669A662C70F8
:102B5800BDE8F087AB6808FA01FA0AEA030313F044
:102B6800670F02D00846FFF77DFE6B68DB4303F072
:102B7800670313EA0A0F09D0002207EB0113C3F811
:102B88002C25E30702D5304602F02EFE640809F131
:102B98000109C0E76000002000200E5070B51D46F6
:102BA8001446184A9DF81060131893F8543000B270
:102BB8000C3302EBC30142F833404D60C5F31301F7
:102BC800AEB10201104E02F1A04202F5622280006D
:102BD800C2F820450644C2F82415336833B1FFF71C
:102BE80083FEA042A94101D20023336070BD0301D6
:102BF80003F1A04303F56223C3F82045C3F8241565
:102C0800F4E700BF6000002000210E50F0B50E4D23
:102C18002B1893F8543000010C3355F8334005EB6A
:102C2800C3077E68641800F1A04021F0004146F116
:102C3800000641EAC27100F5622045F833407E6023
:102C4800C0F82815F0BD00BF60000020F7B5284B7C
:102C5800284CD3F82C6304F188070EB903B0F0BDF3
:102C680096FAA6F00123B0FA80F08340DA432249AD
:102C780026EA0306231893F85450830019440C23BA
:102C880003FB0543DB6873B3D7E8EF3F03EA020CA5
:102C9800C7E8EECFBEF1000FF6D1C340DB0719D568
:102CA800020102F1A04202F56222D2F82435D2F8DC
:102CB8002025D1F800C0BCF1000FCED04FF0000C99
:102CC800C1F800C00C2101FB054529690091E9689C
:102CD8008847C2E705F10C0304EBC30C54F8332012
:102CE800DCF80430E5E70A68002AB6D00B60B4E7E0
:102CF80000200E506000002000210E50044B40EAD6
:102D08000120C3F80005D3F80024D207FBD570478B
:102D180000E0045038B5EFF31185202383F31288BF
:102D2800BFF36F8F064B9C6803F00EF885F311888C
:102D3800BFF36F8F2046BDE83840FEF781B900BF6A
:102D48004806002038B50A4B53F82040013053F8A4
:102D58002050A54200D838BD606830B1037EDB073B
:102D680001D402F0D1FF0834F3E723689847FAE763
:102D780080700000012270B5294B032086B01A70BC
:102D8800FFF7E0FF03F0FFF80420FFF7DBFF254C17
:102D9800254D2646AE4204F1300410D300F006FC5F
:102DA800204C224EAC4226D300F014FCFDF7F0FC78
:102DB8001F4A137B23F00103137306B070BD54F848
:102DC8000C3C059354F8103C049354F8143C0393BA
:102DD80054F8183C029354F81C3C019354F8203CD6
:102DE800009354E90A2354E90C0100F0E3F954F87C
:102DF800303C5E65CDE7D4E90A23B3F1FF3F08BF55
:102E0800B2F1FF3F05D052EA0301206803D100F078
:102E18009DFC3034C6E73146183000F035FEF8E73F
:102E2800B50C0020346F0000346F0000615E0000B4
:102E3800A8030020C02370B5144E86B003FB0066BB
:102E4800134B012205930F23CDE903320023CDE96B
:102E5800013314234FF4A0720E4D0F4903FB0055A4
:102E6800044602FB00110D4B3046009500F0A2F914
:102E7800737B2C7423F004037373094B013403EB45
:102E8800C423EE606B6006B070BD00BFE80200208E
:102E9800C475000048060020B8140020575D0000E3
:102EA800B80C0020BFB50020FFF74CFF284B03F5F6
:102EB800006282F3088883F30A880024E023254D02
:102EC800254F85F82230EC772C766C76AC7685F831
:102ED80020406B6A43F4E0236B6285F82340FEF7D9
:102EE80029F8FEF7AFF94FF0FF33AB62EB62FEF75C
:102EF80037FBFEF7CDF9194800F0C4F90120FFF7B8
:102F080021FF0220164DFFF71DFF00F097FB154B20
:102F180015495D61154B4FF48062059301232846DE
:102F2800CDE90343CDE901443B46009400F042F962
:102F380006466A7B284622F004026A7302F05AFFAA
:102F48002046FFF777FF3A4631462846FEF758F9FC
:102F5800B80C002000ED00E07D2D00006804002082
:102F6800A803002048060020F8150020C9750000B5
:102F78002DE9F341044617461E46EFF31188202336
:102F880083F31288BFF36F8FC368334A7BB18068BD
:102F98009168884219D057EA060318D188F3118836
:102FA800BFF36F8F6FF00F0002B0BDE8F08191683A
:102FB80091F90E100133E36093682161A36088F3EF
:102FC8001188BFF36F8F0020EEE72169F2E791F9CE
:102FD8000E1090F90E306FF07E029942A8BF194684
:102FE8009142B8BF11468B422DDD02F0BBFE05466B
:102FF80022464146CDE90076184800F01DFA00281F
:10300800E1D0EFF31186202383F31288BFF36F8F8B
:10301800A068D0B1236821699C420AD04BB193F9CA
:103028000E309942A8BF19466FF07E039942B8BF87
:10303800194602F097FE40B13146084800F090FA70
:103048006FF00A00B0E70025D2E7002DF4D186F32F
:103058001188BFF36F8FF3E748060020B60C0020F5
:10306800F8B583680546002B40D0234A92689342FE
:103078003FD1C368012B03D9013BC3600020F8BDD1
:10308800EFF31187202383F31288BFF36F8F016951
:10309800806802F067FE2C68A54207D10023C5E9C5
:1030A800023387F31188BFF36F8FE7E7002CF5D061
:1030B800D4E90032002613605A60637BC4E90066D5
:1030C80023F002036373A66004F1180002F02FFFD7
:1030D800AC6094F90E3020462B61C4F8BC6002F055
:1030E80089FE3946054800F03BFAC7E76FF015003E
:1030F800C5E74FF0FF30C2E748060020B60C0020B5
:1031080070B5EFF31186202383F31288BFF36F8F16
:103118000468A0421BD0D4B1D4E900320025136062
:103128005A60637BC4E9005523F002036373A5600A
:1031380004F1180002F0FBFE2046C4F8BC5002F06F
:1031480059FE3146BDE87040064800F009BAD0E99A
:1031580002329A4218BF0133836086F31188BFF3A5
:103168006F8F70BDB60C002013B5EFF311812024CA
:1031780084F31288BFF36F8F846844B1013C846084
:1031880081F31188BFF36F8F002002B010BD52EA9F
:10319800030406D181F31188BFF36F8F6FF00F001E
:1031A800F3E7CDE900230246014800F045F9ECE7D2
:1031B800B60C00202DE9F04F984685B000F1580371
:1031C800C0E91633129B002503730423D61D26F08D
:1031D80007064373119B01EB060A0F46C0E9065523
:1031E800514685608373C5730446DDF838B0DDF851
:1031F8004C90FDF791FC109B073020F00700C4E9C4
:103208002976C4F8AC0002930F9BAAEB0006CDE91F
:1032180000B33246434639462046FDF7D5FF0F9B9B
:10322800C4E91C8BA367109B656584F86C50E36741
:10323800EFF31183202282F31288BFF36F8F104FB0
:103248003A6A3C62C4F8802083F31188BFF36F8F19
:10325800B9F1000F11D01F22494604F1840003F090
:1032680012F984F8A350BB680BB1D3F8B0303046DC
:10327800C4F8B03005B0BDE8F08F84F88490F2E768
:103288004806002040F2011383810023C0E9293356
:10329800C0F8B030014B9860704700BF4806002066
:1032A8006FF00A01094A9368C3F8BC100849C3F8CB
:1032B800B8004B6843F080534B60002383F31188B8
:1032C800BFF36F8F9368D3F8BC007047480600209F
:1032D80000ED00E070B590F90D20437B002A36DB45
:1032E800D90634D11B4C63F07F032246437352F84E
:1032F800183FE169934207D1C0E900210860E06105
:1033080011E09942F8D01B68002BF5D090F90E50C7
:1033180093F90E60B542F4D0AE42F2DD5968C0E9C7
:10332800003108605860A569954200D005B9E56884
:10333800A3685A7BD20604D1DA897F2A01D9AA69FF
:1033480032B1AB4202D0284600F0FCFA656170BD8C
:103358006361FCE74806002038B590F90D20014666
:10336800002A437B04DA03F07F03437302F008FD6D
:103378000D4D2A4652F8184FAB68944200D004B954
:10338800EC688B4207D05A7BD20604D1DA897F2AAF
:1033980001D9A2692AB1A34202D0204600F0D2FA8C
:1033A80023466B6138BD00BF48060020B3F1FF3FDC
:1033B80008BFB2F1FF3F03D00249183000F064BBE8
:1033C800704700BF615E000038B5194CA168E0691C
:1033D8000B68814214BF1A46002249680B60596085
:1033E800A368E1692AB9134AC3E900210B60E361C4
:1033F8000CE093F90E0092F90E50A84214D08542C1
:1034080012DD5168C3E900210B605360A569094BBF
:103418009D4200D005B9E568A3689D4202D02846C0
:1034280000F090FA656138BD9142DCD01268D9E7A6
:103438004806002060060020F8B5DDE906670D4B58
:103448000C46986811460C4A1060EFF3118220224E
:1034580082F31288BFF36F8F9D68284602F0A2FCA2
:10346800284632463B46FFF7A1FF2046BDE8F84014
:10347800FFF716BF480600206C060020F8B5044682
:10348800EFF31187202383F31288BFF36F8F437BF9
:1034980049B203F01F02002A0CBF0126002639D1C9
:1034A80003F07F032D4D437302F06AFC2A46437BE9
:1034B800817363F07F03437352F8183F934227D117
:1034C800E869C4E900200460EC610FE09842F8D094
:1034D8001B68002BF5D093F90EC06145F6D08C45DA
:1034E800F4DD5968C4E900310C605C60AC69944251
:1034F80000D004B9EC68AB689C4202D0204600F0CA
:1035080021FA6C6187F31188BFF36F8F3046F8BDDD
:10351800E869DEE79B071ED5856802F031FC8173F8
:103528002B689D4209D16B68C4E900531C606C602C
:10353800E8E76A689342F6D01B68002BF3D093F94A
:103548000E209142F5D08A42F3DD5A68C4E9003270
:1035580014605C60D6E78173D4E700BF480600209A
:1035680049B9EFF3058030B9054B5A699B689A420F
:1035780001D0FFF795BE81F31188BFF36F8F7047B5
:1035880048060020034648B9EFF3058232B9064AD7
:1035980051699268914201D0FFF782BE83F3118886
:1035A800BFF36F8F704700BF48060020EFF311810B
:1035B800202383F31288BFF36F8F054B9A68D37B60
:1035C800013BD37381F31188BFF36F8F704700BF3E
:1035D8004806002070B5EFF31186202383F3128884
:1035E800BFF36F8F144DAB68DA7B0132DA732A466A
:1035F80052F8184F944200D004B9EC685A7BD206AE
:1036080004D1DA897F2A01D9A2692AB1A34202D05A
:10361800204600F097F923466B6186F31188BFF3C3
:103628006F8FEFF31180202383F31288BFF36F8F1E
:10363800BDE87040FFF7A6BF48060020024B03F123
:103648001802C3E9062270474806002070B5EFF358
:103658001186202383F31288BFF36F8F1B4CA16858
:10366800E0690B68814214BF1A46002249680B6062
:103678005960A368E1692AB9154AC3E900210B60BA
:10368800E3610CE093F90E0092F90E50A84218D0AD
:10369800854216DD5168C3E900210B605360A569B6
:1036A8000B4B9D4200D005B9E568A3689D4202D046
:1036B800284600F047F965613046BDE87040FFF7DD
:1036C800EFBD8A42D8D01268D5E700BF480600206F
:1036D80060060020F8B550EA010306460C4603D1FF
:1036E800FFF7B4FF0020F8BDEFF31187202383F321
:1036F8001288BFF36F8F124D124BA8681860FFF73E
:103708002BFEA868234632460F49183000F0BCF952
:10371800AA680446537B384643F004035373FFF703
:10372800BFFDAB68D3E90A23B3F1004F08BF002AF5
:10373800D8D102F024FC201A20EAE070D3E700BFB9
:10374800480600206C060020615E000038B504467B
:10375800EFF31185202383F31288BFF36F8F437B28
:103768005B070FD5183002F0E2FB637B204623F09D
:1037780004036373FFF7AEFD2946BDE838400448EB
:10378800FFF7EEBE85F31188BFF36F8F38BD00BF1A
:10379800B60C0020014B9868704700BF480600200F
:1037A8002DE9F8430446077BEFF31185202383F3C3
:1037B8001288BFF36F8F437B190705D585F31188EE
:1037C800BFF36F8FBDE8F883D90943F0080260D1D1
:1037D8004273A36813B1204602F0DAFA04F1180024
:1037E80002F0A5FBA66D04F15808B04511D04FF0C2
:1037F800000976B1304602F0CBFA06F1180002F063
:1038080096FB3046C6F8BC90FFF764FDA66DB04540
:10381800EFD1DFF8C480D8F808309C4241D1EFF3EB
:103828000589B9F1000918BF4FF00109D8F81860E7
:103838002A4A964200D00EB9D8F80C60B34202D09A
:10384800304600F07FF82046C8F8146001F087FE83
:10385800204600F0C9F8B9F1000F02D02048FFF760
:1038680011FDD8F808309C4231D1EFF3058373BBC2
:10387800227BD20718D42846FFF712FDFB07A1D5F3
:10388800002383F31188BFF36F8F0423184602DFE8
:1038980098E703F07F0343F00803437302F070FADC
:1038A80097E74FF00009C1E785F31188BFF36F8FE1
:1038B80083F31188BFF36F8F0423184602DFEFF3F9
:1038C8001180202383F31288BFF36F8FD4E785F329
:1038D8001188BFF36F8FD1E74806002060060020EB
:1038E80068040020427B034612F01F0210D10A49E7
:1038F80088420DD00949086868B1D9897F2909D853
:1039080093F90E20064B1B689A42B8BF00207047F7
:103918000020704710467047E8020020EC010020A4
:10392800700600200122044BC01A044BC0105843F3
:10393800034B1A54704700BF28050020ABAAAAAA57
:10394800B60C002070B50D4B0D4D1E7CFFF7CAFF5D
:1039580006EB460305EBC3050446284602F0E7FAE2
:103968000022084B9A553CB1621E2846BDE87040BB
:103978000549D31700F088B870BD00BF480600207D
:1039880028050020B60C00202D39000038B5EFF3CB
:103998001185202383F31288BFF36F8F0F4B104AD2
:1039A8009C681068A04206D1FFF7CCFF85F3118808
:1039B800BFF36F8F38BD00211B7C1160094AD35CAF
:1039C800002BF3D02046FFF78DFF0028EED0637B55
:1039D800DB0601D1FFF7F8FC2046E5E748060020A2
:1039E8006C060020B60C0020EFF31181202383F32E
:1039F8001288BFF36F8F0C4A136A834208D1D3F839
:103A08008030136281F31188BFF36F8F70471346BC
:103A1800002BF7D0D3F880208242F8D1D0F880204C
:103A2800C3F88020EEE700BF48060020024B186864
:103A3800984208BF00207047F0010020034B1B6824
:103A48000BB9FEF761BA0020704700BF740600206A
:103A580030B570B10B4B5B6898420AD0036843B12C
:103A6800D3E90421D0E90445121941EB0501C3E962
:103A78000421D0E9003213605A600023C0E9003302
:103A880030BD00BFF0010020B3F1FF3F08BFB2F125
:103A9800FF3F2DE9F84F0446994615461F467AD050
:103AA8008160EFF31188202383F31288BFF36F8FAF
:103AB800B9F1000FDFF8E4A020DBFFF7BFFFDAE978
:103AC8000027013549F100092D1849EBE073064636
:103AD8004FF00109C4E90453AD1843EB0707FFF79A
:103AE800A5FF0346DFF8B8E0DEF804A0EBB9C4E9A7
:103AF80000EACAF80040CEF8044028E06FF001035D
:103B0800DAE900125B1A4FF0FF3161EB02025B1B2E
:103B180062EB0902012B72F10001BCBF01230022F4
:103B28004FF00009C0E90432D9E7D3E9041CD4E90D
:103B380004208A4270EB0C0B24DA891A5A686CEB61
:103B48000000C3E90410C4E9003214605C60FFF7A8
:103B58006DFF84420ED1134B1B685BB9B9F1000F9E
:103B680002D1FFF76BFF0646304602F0C9F9002183
:103B7800FEF7FAF988F31188BFF36F8F28463946A4
:103B8800BDE8F88F521A60EB0C009A45C4E904208E
:103B9800ADD01B68AAE700252F46EFE740050020B7
:103BA800F0010020740600202DE9F047EFF311859D
:103BB800202383F31288BFF36F8FDFF8A0900026CD
:103BC800C9F800000027FFF731FFDFF89480D9F823
:103BD8000030D8E900ECD91750B1D0E90442A3422B
:103BE80071EB020A1BDAE41A62EB0102C0E9044233
:103BF800002413EB0E034CEB01012046C8E9003109
:103C0800C9F8004002F07CF92146FEF7ADF985F3CA
:103C18001188BFF36F8FBDE8F047FFF7B7BE14EB0D
:103C28000E024CEBE473C0E90467C8E90023FFF710
:103C38000FFF85F31188BFF36F8F83689847EFF301
:103C48001185202383F31288BFF36F8FD9F80030D2
:103C58001B1BC9F80030FFF7E9FEB8E7740600201F
:103C68004005002010B5EFF31184202383F3128858
:103C7800BFF36F8FFFF7E2FE0346054AD2E9000162
:103C8800181841EBE37184F31188BFF36F8F10BDEF
:103C980040050020F8B50D4E0D4C0E4D33680E480A
:103CA800984767782B680C48984733680B489847BB
:103CB800022F08D12478E31F5C425C412B68074837
:103CC80098472046F8BD0024F8E700BF20020020EE
:103CD800780600201C020020900200207C020020B0
:103CE80070B51D4E1D4C33681D48984723785907F9
:103CF80044BF23F00403237023789A0705D500F006
:103D0800C1F8237823F002032370164D14482B685A
:103D18009847336814489847637813B1134802F0FA
:103D280060F9002304211148637000F0CBF82B6878
:103D38000D48984733680A4898472378DB0705D524
:103D480002F04CF9237823F0010323702B68044810
:103D5800BDE87040184700BF200200207806002008
:103D68007C0200201C020020900200207C0600201B
:103D78002DE9F041FFF78EFF18B100242046BDE879
:103D8800F081364F36483B689847044620B16FF0BB
:103D98008F04FFF7A5FFF1E7324D2B78D80706D43B
:103DA80002F01AF904462B7843F001032B702E4ECB
:103DB8002B483368984710B1002CE8D0E9E7002C6D
:103DC800E7D13B682648984704460028DFD12B787E
:103DD800990706D400F04EF804462B7843F0020306
:103DE8002B7033681E4898470028E5D1002CD0D1A5
:103DF8003B681B4898470028C9D13368184895F88C
:103E0800008098470028C2D13B6818489847044664
:103E18000028BCD16B7843B918F0010F05D01448BD
:103E280002F0DDF8022304466B7033680F489847A8
:103E38000028C1D1002CACD13B680948984700281C
:103E4800A5D12B7806485A075CBF43F004032B70B2
:103E580033689847002890D099E700BF20020020D7
:103E68007C020020780600201C020020900200201E
:103E78007C0600200122024B002083F88025704731
:103E8800800600202DE9F0410A4C002526464FF017
:103E9800010803272046C4F820802777013502F05F
:103EA8007EF8202D04F12C04F4D1002386F8803507
:103EB800BDE8F08180060020014B1B68184700BF51
:103EC800F801002010B50A46044619B1024B00213A
:103ED8001B68984710BD00BFFC01002010B50D4CB1
:103EE800206802F02DFA0C4A1368591C11605BB95E
:103EF8000A4A5920D2F8003443F00703C2F80034C4
:103F0800FDF7FAF800F02EFC2068BDE8104002F03A
:103F18001DBA00BF04020020040C002000900550C8
:103F280038B5164D286802F00BFA154B1C68013C91
:103F38001C60ECB95920FDF7EDF80722114BC3F8C6
:103F48000823D3F8002422F00702C3F80024C3F89A
:103F58000041D3F80021C3F80441D3F804214FF0FD
:103F68000072C3F80841D3F80831074BC3F8882119
:103F78002868BDE8384002F0E9B900BF0402002013
:103F8800040C00200090055000E100E070B5104DD1
:103F9800104E2B68B3420DD0FFF7A0FF00F03AFD9A
:103FA80000F0CCFD40B102F029F80446FFF7B8FF55
:103FB80044B92E60002405E000F0D4FA044618B194
:103FC800FFF7AEFF204670BD02F01BF9EDE700BF1A
:103FD80000020020117365000022074BC3F810216E
:103FE800C3F80C21C3F80021C3F80421C3F8082141
:103FF800C3F81821704700BF0090045008B5FFF7B8
:10400800EBFF01230360104B0A6832B9D3F80C2187
:104018001AB9D3F80821002AF6D00B687BB90B4BE4
:1040280099420ED0A3F58473D3F80831002B0CBF46
:104038004FF0FF306FF00200FFF7CEFF08BD002001
:10404800FAE74FF0FF30F7E700900450089104506A
:1040580038B505460C4691B10021012001F04DFE0E
:1040680008480949C0F80055C0F80445FFF7C6FFDD
:1040780000210446084601F040FE204638BD6FF096
:104088000104FAE70090045000910450034B0449DE
:10409800C3F800050348FFF7B1BF00BF0090045004
:1040A800049104500490045010B5044600210120E6
:1040B80001F023FE064B0749C3F800450648FFF701
:1040C8009DFF00210446084601F017FE204610BD5A
:1040D80000900450089104500890045038B50C46DC
:1040E80059B1074D0749C5F800050748FFF786FF8E
:1040F80010B9D5F80835236038BD6FF00100FBE72B
:1041080000900450109104500C9004502DE9F04791
:10411800804600244FF010091E4E94B00DF127057B
:1041280025F01F0506F1200A012210211A4801F086
:10413800D0FF2B1900935246102320211548CDF8A3
:10414800049000F04DFA0746F8B9D6E90C3210345D
:10415800013342F10002302CC6E90C32E4D1B8F147
:10416800000F04D022464146284601F0A5FF2E46FE
:10417800084C0FCE0FC496E80F00203584E80F00D6
:1041880095E80F00103484E80F00384614B0BDE8F5
:10419800F08700BF4805002068050020F0B5194DDC
:1041A800194FAB6B8DB0BB4229D0184E306802F066
:1041B800C7F8402300221946284601F094FF302111
:1041C800684601F0B1FF044678B96846FFF79EFFDC
:1041D800044690B9302302461946684601F083FF29
:1041E80001220023C5E90C23AF63306802F0AEF862
:1041F800204601F003FF0DB0F0BD0E24F5E70020C6
:10420800F9E700BF48050020B4A5B4A508020020BE
:104218002DE9F04F99B00DF1570802F10F098246C8
:104228000E46144628F01F084FEA191922B1002932
:1042380069D0B2F5005F66D8344F354D386802F062
:104248007FF8D5E90C3213430BD15046FFF7A6FF90
:10425800834630B1386802F079F8584619B0BDE89D
:10426800F08FD5E90C2319EB020943F10003B9F5E6
:10427800803F73F1000314D3302102A801F054FFEA
:10428800B8B902A8FFF742FF83460028E2D13023DD
:104298000246194602A801F026FF00220023C5E9BC
:1042A8000C23DFF870A03CB92046FFF72FFF8346A8
:1042B800D0E76FF0920BCDE7102C4FF001024FF0D2
:1042C80010015046A14628BF4FF0100901F001FF28
:1042D800102352462021CDE900830D4800F080F9D3
:1042E80083460028B6D14A463046414602F0B6F821
:1042F800D5E90C32013342F10002C5E90C32A4EBD6
:1043080009044E44CFE76FF0860BA6E708020020A9
:1043180048050020680500202DE9F04F89B00746C0
:104328000C4615461E4601F049FF78B97B69009096
:10433800C3F3013262F305108DF8000010F030006D
:1043480007D1B96889070FD06FF0860009B0BDE8BA
:10435800F08F102808D1BDF8023023F4F87343F425
:10436800A873ADF8023053E0DBB2F82B02D06FF03F
:104378008500EBE700234FF0010B984619469C4651
:10438800D7F808E0DFF8CC9159F804AB1EEA0A0F19
:1043980008D00BFA0CF343EA080303F07F08012363
:1043A80041EA0A010CF1010CBCF1070FECD12BB169
:1043B8009DF8033068F347038DF803303EEA0101A6
:1043C800D5D17B88FF2B35D005D8802B34D0C02B96
:1043D800CDD1022306E0B3F5807F2FD0B3F5C07F9F
:1043E800C5D106239DF8021063F306118DF802105B
:1043F80010B91EF0030FA7D13B79022B2BD01FD881
:10440800012BA1D1BDF8021063F3C811ADF8021059
:10441800012A39D0032A23D0002A95D13B88B3F545
:10442800105FA4D1182E03D0202E01D0102E8BD1CE
:10443800494F2DE00323D5E70123D3E70423D1E730
:10444800032B02D0FF2B7FF47FAF0221BDF802308F
:1044580061F3C81385E7BDF8023043F4C07380E701
:10446800412E0ED0202E05D006D8102E02D0182EA0
:104478007FF46AAF394F0BE0302EFBD0612E7FF40A
:1044880063AF0135013EF5E7302E7FF45DAF344F61
:104498004FF000080F364FEA1619C14515D11F2EE7
:1044A8001CD81C22002101A801F0E5FF4FF0000AEA
:1044B8004FF0FF39D04518D11F2E04D9BA20FFF785
:1044C800F3FD002835D1002040E704EB080001F097
:1044D80021FE00283AD008F10108DEE741462046CF
:1044E80001F054FE0028DCD030E707EB0A124FEA4F
:1044F8000A130692BAF1000F1ED1009A0792BDF86E
:1045080002202B44C2F3C11205920DF1040C03F1F1
:10451800100E624618685968083303C273459446FA
:10452800F7D101A904EB0A00FFF792FD38B101F0B9
:1045380045FE6FF0920009E7CDF81C90DFE71C21DB
:1045480001A801F0DBFD0AF1010AB3E76FF08A0068
:10455800FCE600BF9870000000FF02200000002069
:104568001094055010B590B01C22002101A801F04C
:1045780082FFF82001F0CEFD08B3202200200DEBC9
:104588000201FFF745FE0446F8B901A84FF480710F
:1045980001F0F2FD0E4B0F4904930F4BCDE90113C7
:1045A8000E4BF821069320230DEB0302FFF7B4FE10
:1045B800202104460DEB010001F0A0FD05E0F920E3
:1045C80001F0A8FD0028D8D10446204610B010BD3F
:1045D8000010C00400240001014B4E80F800FF7F4A
:1045E8002DE9F3411D464FF48073284C8046002086
:1045F80017460E46019300F097F901AB236011238B
:10460800234A0121C4E9022304F11003636040F640
:104618001103E36104F1200363612123089AE36233
:104628001C4B46F000561A60099A45F0005542F0B6
:104638000052C3E901122022C4F81080A661276243
:10464800A5626162DA60BFF35F8F134A1460BFF33B
:104658005F8FBFF35F8F1361BFF35F8FBFF35F8F10
:1046680003235363BFF35F8FBFF35F8F9363BFF37E
:104678005F8F00F039F8431C0446FAD0002000F0A0
:104688007DF9204602B0BDE8F08100BF180C00207B
:1046980004000020080C00200000015038B5BFF3CA
:1046A8005F8F104CE569BFF35F8FBFF35F8F1023F7
:1046B8006363BFF35F8F012001F05DFEBFF35F8F7F
:1046C80000236363BFF35F8FBFF35F8FE36BBFF3B9
:1046D8005F8F5B06F8D425B1BFF35F8FE561BFF349
:1046E8005F8F38BD0000015008B500F0A7F9104AE7
:1046F80020B9BFF35F8F906ABFF35F8FBFF35F8FFF
:10470800D36BBFF35F8F10F0240F03F0230304D0A3
:10471800FFF7C4FF6FF01F0008BD4FF0FF30002BFC
:10472800FAD1BFF35F8F1063BFF35F8F1846F3E7CB
:1047380000000150BFF35F8F094A1368BFF35F8F12
:1047480043F48071BFF35F8F1160BFF35F8F23F471
:104758008073BFF35F8F1360BFF35F8F704700BF35
:1047680000100150BFF35F8F1522064B5A62BFF34A
:104778005F8FBFF35F8F40F237129A62BFF35F8F8C
:10478800704700BF0010015008B5FFF7D3FFBFF313
:104798005F8F064A1368BFF35F8F43F00103BFF3CF
:1047A8005F8F1360BFF35F8F08BD00BF001001501B
:1047B80070B50026C0E9006605460C46FFF78EFB7B
:1047C80001232B70FFF7B6FFBFF35F8F204BDB6829
:1047D800BFF35F8F9B08013BACB3226842B19A429A
:1047E80005D9FFF79DFB6FF03F002E7070BD134693
:1047F800D4E90115E068002908BF4FF400710028CA
:1048080008BFF1202469BFF35F8F114A9360BFF39B
:104818005F8FBFF35F8F1564BFF35F8FBFF35F8F49
:104828005064BFF35F8FBFF35F8F5163BFF35F8F38
:1048380044F4802444F00104BFF35F8F1460BFF395
:104848005F8F0020D2E74FF40071F1202546DAE7A8
:104858000010015070B503780D461446002B53D054
:10486800BFF35F8F2D4A136BBFF35F8F5908C3F3F4
:104878004203052B4BD011F0060F02D14FF0FF3049
:1048880070BD4368D3B9BFF35F8F5368BFF35F8FC1
:10489800032BF3D9224B2349BFF35F8FD2F88060F3
:1048A800BFF35F8FBFF35F8F43F8046BBFF35F8F76
:1048B8008B42F1D1FFF768FF01234360BFF35F8F9D
:1048C800164B9A68BFF35F8F0132B4EB021F21D8F1
:1048D800BFF35F8F5A68BFF35F8FB4EB820FCDD8F9
:1048E80084B1BFF35F8FD3F88020BFF35F8F291D9A
:1048F80005F8012B8D424FEA122204F1FF34EFD064
:10490800002CF5D10020BBE76FF02000B8E76FF06E
:104918005100B5E76FF03F00B2E700BF001001504B
:10492800101001502010015010B50446FFF7D6FAB8
:10493800104B186801F004FD0CB101232370BFF37C
:104948005F8F00220C4BDA61BFF35F8FBFF35F8F7D
:104958004FF0FF321A63BFF35F8FBFF35F8F3422CC
:10496800DA61BFF35F8F012203F59223C3F80423B2
:1049780010BD00BF0C0200200000015010B5044615
:1049880038B9FFF7CDFABDE81040074B186801F0B9
:10499800DDBC03783BB1FFF7C3FA034B186801F09D
:1049A800D5FC0023237010BD0C02002038B5154C2F
:1049B800D4F80051BDB1BFF35F8F134B996ABFF3B1
:1049C8005F8FBFF35F8F4FF0FF321A63BFF35F8FC4
:1049D8000023C4F80031D4F800310C4B1868BDE846
:1049E800384001F0C6BCD4F8083153B100F076F86D
:1049F80001F037FCC4F80851D4F808310121044B00
:104A0800ECE738BD0090055000000150140200206A
:104A18001002002008B5074B186801F099FC064BF6
:104A2800186801F095FCBDE808400022592011469D
:104A3800FCF792BB140200201002002038B5094B85
:104A48001C7864B1084B4FF0FF311D68284601F00F
:104A580081FC4FF0FF310446284601F088FC2046CF
:104A680038BD00BFB50C00201402002010B5064C5C
:104A7800E36C3BB9214651F84C3B986901F032FC94
:104A88000123E364014810BD480C0020940C002069
:104A980010B504460E4B186801F052FC0D4B1A680D
:104AA800236122605A6862609A68A2600A4A1268A2
:104AB8009A660023A364FFF711FA204601F0C2FBAF
:104AC8000028FAD1204601F0C2FB0028F5D110BD1C
:104AD80018020020480C0020B470000000487047FD
:104AE800480C002010B50446054A036912689A6606
:104AF80001F0EBFB2046BDE8104001F0BABB00BF57
:104B0800CC70000010B50446FFF7ECFF0422084BF8
:104B1800C3F80823FFF704FA064A236912689A665D
:104B280000236364044BBDE81040186801F00EBC14
:104B380000900550B47000001802002010B5104B0A
:104B4800104C236003F5C04363602461FFF78EFFB8
:104B580098B1236D2046B3F5007FCCBF4FF4806336
:104B68004FF40073A360FFF793FF2046FFF7BAFFE7
:104B78002046FFF7C7FF002010BD0E20FCE700BF4E
:104B880000200150480C0020244B0340B3F5806FEF
:104B98002FD017DC402B2ED008DC102B2DD0202B4B
:104BA8002DD0181E18BF012040007047B3F5807F34
:104BB80027D0B3F5007F26D0802B08BF0B2018BF65
:104BC80002207047B3F5804F1FD00ADCB3F5805F31
:104BD8001DD0B3F5005F1CD0B3F5006F08BF0620E9
:104BE800EDE7B3F5004F16D0B3F5803F08BF0320BB
:104BF800E5E7112070470A2070470C20704709200C
:104C08007047082070470720704714207047052018
:104C18007047042070470F20704700BFF0FF010065
:104C28002DE9F0434FF0000985B00546CDF8049012
:104C380000F10C07EFF31188202383F31288BFF3E8
:104C48006F8F8368594003EA02060A4053400E49B1
:104C580001AACDE9023901F031F9019C3CB12046A5
:104C6800C4F8BC900021246E01F0D3F8F6E7DDE922
:104C7800023223EA020338464146AB60FEF770FC75
:104C8800304605B0BDE8F083096400002DE9F04F17
:104C980043688DB015468046029383789A0740F1A1
:104CA8000D8100240E78002E00F00A81252E0BD0ED
:104CB8004B1C0393013441463046029B9847002819
:104CC800C0F2F6800399EDE74E788B1C252E0393EE
:104CD800F0D00027B946BB46BBF11F0F38D8A6F164
:104CE8002003102B0AD8DFE803F02A090930090944
:104CF800092109090928092D09091F00A6F130030E
:104D0800092B33D92A2E37D11BF0400F55F8043B15
:104D180040F08280002BA7BF4BF0200B9946C3F1CF
:104D280000094BF0280B01E04BF0010B039B13F833
:104D3800016B0393002ECFD130E04BF0020B4BF008
:104D4800040BF3E74BF0080BF0E74BF0100BEDE723
:104D5800BBF17F0F19D8A6F13003092BD2D81BF06D
:104D6800400F03D00A2101FB0737DFE70A214BF088
:104D7800200B01FB0939D9E72E2E06D11BF0400F75
:104D880040F09E804BF0400BD0E76C2E31D02BD8F2
:104D9800682E36D06A2E3CD04C2E3AD0002F46F0E2
:104DA8002003B8BF2BF04002A3F16501BCBF002768
:104DB8001FFA82FB022901D9612B2FD1073507275A
:104DC800DFF8ACA225F0070508351BF0080F66D000
:104DD8000AEB070B56465E4563D1A4EB0A0AA9EB1A
:104DE800070906EB0A026FE1742E9FD07A2E9DD038
:104DF800D4E71BF0800F18BF4BF4007B4BF0800BFF
:104E080094E71BF4807F18BF4BF4007B4BF4807B46
:104E18008CE74BF4207B89E71F4687E7A6F16301FF
:104E2800122900F2F080DFE811F013004F00EE00C5
:104E3800EE00EE00EE004F00EE00EE00EE00EE0099
:104E4800EE00FE00E900EE00EE001B00EE00AF00F1
:104E580055F8043B01270DF1180A8DF81830B4E70E
:104E680055F804AB834BBAF1000F08BF9A461BF004
:104E7800400F504614BF39464FF0FF3101F013FB85
:104E88000746A2E741462020029B984700280FDBEF
:104E9800013EB742F6D34C44B146A41B98E74E46B0
:104EA800F7E7414616F8010B029B9847002892DA6B
:104EB80098F8023043F0040388F802304FF0FF34CA
:104EC80020460DB0BDE8F08F1BF0800F34D01BF4E6
:104ED800007F2CD0073525F00705AA4669685AF8DF
:104EE800080B2BF010050029ADB237DA404245F423
:104EF800806561EB41010DF1180B0A235A4601F058
:104F0800DEFAA0EB0B0301936B0662D5019B25F03B
:104F180001019F4289B240F3A180002E00F09980E0
:104F280015F0100240F09C80BB460D4623E0AA46CF
:104F38005AF8040BC117D4E7AA461BF4807F5AF825
:104F4800041B01D10846F5E71BF4007F19BF48B2DE
:104F580041F3C01108B241F3C031C2E750EA01037E
:104F6800C9D11BF0400FC6D0002FC4D12BF01102BD
:104F7800BB46019795B240F2064115EA01021CBFF3
:104F88000BF1010B00222CE02BF010020A231FFA70
:104F980082FB1BF0800C49D01BF4007115BF07354C
:104FA800AA4625F007055AF8040B1EBFAA466968E9
:104FB8005AF8080B50EA010545D12BF016051BF0ED
:104FC800400FADB242D0002F40D12BF0170201970D
:104FD80095B215F0100248D0019B002E42D103F182
:104FE800010B29075AD4EB0706D5D9456FDDA9EB84
:104FF8000B030199CB465F185B4649E04BF0100B59
:1050080010237826C5E7782B04D1C6F1780343F03E
:105018001003BEE741462520029B98470028FFF66B
:1050280047AF023447E608230026B2E7AA461BF436
:1050380080715AF8040BBDD01BF400711ABFC0B2BE
:10504800614680B2B6E72BF0060295B20DF1180B57
:1050580054E725F01105BB46ADB28CE70D46B8E71D
:105068003B460D4603F1020BBBE7DDF804B082E7CF
:10507800D5750000CE750000CDE9043241462020E8
:10508800029B98470028FFF613AF049B059A01334B
:105098009945F1DCA4EB0B019B46CC180AB34146B9
:1050A8003020029B98470028FFF602AF8EB90134E2
:1050B8002744391B019B994224DC1D4655BB019AA4
:1050C800A9EB0B09554622441446914433E0019F4D
:1050D80092E7023441463046029B98470028E7DAB7
:1050E800E6E640F206410D42E2D015F0020F04F167
:1050F8000104414614BF2B20202015F4806F18BFEF
:105108002D20E9E741463020029B013498470028CA
:10511800CFDACDE606AB013D4146585D029B984784
:105128000028CBDAC4E641462020029B0134984788
:105138000028FFF6BDAEA9EB0403002BF3DCC1E5A4
:105148007047836800EBC101B3F5004F2CBF51F8DD
:10515800220031F81200704700EBC1018068B0F5F9
:10516800004F2CBF41F8223021F81230704701223D
:1051780008B5FFF7E6FFD04008BD836800EBC10122
:10518800B3F5004F08D34B681AB143F001034B60E5
:10519800704723F00103FAE74B881AB143F0010383
:1051A8004B80704723F00103FAE753000122FFF711
:1051B800D3BF8368481CB3F5004F34BF04230823CA
:1051C8000833A0EBD300B0FA80F0C0F11F0070479D
:1051D8002DE9F0410D4686680446FFF7C8FFB6F58D
:1051E800004F014601D3012832D02046FFF7E1FFE6
:1051F80004EB80010E6996B90122E36882401343EB
:10520800E36002220D612B4629462046FFF7A4FFE2
:10521800032229462046BDE8F041FFF79DBF022240
:1052280031462046FFF78DFF0746034629462046AC
:10523800FFF792FF0322334629462046FFF78CFFEB
:1052480039462B462046FFF787FF02223146E1E721
:10525800BDE8F081B2F5802F2CBF082304232DE987
:10526800F0410026D21A8C18CD1D25F0070524F030
:105278000704641BE408056021462846AC60EE601C
:10528800FFF797FF421D9200013002F107074FEA2E
:10529800D7073146A2F1100205F11000B8BF324617
:1052A80001F0E9F83A4631462846FFF77EFF3346D3
:1052B800324631462846FFF74FFFA4EB0708284639
:1052C80031460122FFF759FF42463946FFF76DFF85
:1052D8003B46324639462846FFF73EFF21462846D8
:1052E800FFF763FF4346324621462846FFF734FF5F
:1052F800214628460122FFF740FF3946BDE8F04124
:10530800FFF766BF002070470FB407B504A951F82E
:10531800040B0191FBF750FA03B05DF804EB04B0FD
:10532800704708B5EFF31183202383F31288BFF386
:105338006F8FFCF73DFA038B13F0070305D1036861
:10534800002B0CBF002003207047022B05D1408B97
:10535800B0FA80F0400980007047012B05D103683E
:10536800002B0CBF0020052070470020704710B5A7
:105378000C4600B111B96FF0150010BD081D00F002
:10538800B7F80028F9D1A368032BF6D9F3E72DE97C
:10539800F0410D4607461946281D90461E4600F066
:1053A800B8F8044638B13346424629463846A4463A
:1053B800BDE8F0416047BDE8F08110B4EFF3118219
:1053C800202484F31288BFF36F8F416110BC012140
:1053D800FBF724BA38B50C46054658B151B10B68ED
:1053E80043B14B6833B11C22002101F044F800207E
:1053F8002C6138BD6FF01500FBE770B505460E4609
:10540800FFF7B5FF041E14DBEFF31182202383F3AB
:105418001288BFF36F8F4FF6FF716B8B2C8B8B420B
:1054280004F0070407D182F31188BFF36F8F6FF080
:105438000A04204670BD022C0CD101336B8382F321
:105448001188BFF36F8F0023224631462846FFF7A5
:105458009EFFEEE7062C14D8DFE804F004131313BC
:10546800041A0400002333606B683BB9C5E9006681
:10547800ACB902212846FBF7D1F9DAE71E606E6065
:10548800F6E782F31188BFF36F8F6FF00404D0E75B
:1054980082F31188BFF36F8F6FF08504C9E782F339
:1054A8001188BFF36F8FC4E710B5EFF31182202383
:1054B80083F31288BFF36F8F048B04F00704022C68
:1054C8000AD0012C0CBF6FF004006FF0850082F346
:1054D8001188BFF36F8F08E0438B013B9BB2438376
:1054E80023B92146FBF79AF9204610BD2046EEE77E
:1054F800034658B1426802F00302012A03D0032A86
:1055080004D1026812B10020986070476FF015004E
:1055180070474268034602F00302032A4FF0000274
:10552800816014BF104600685A607047704700F0E9
:10553800A2BF00F093BF01460068FBF7B9BA08B5EF
:10554800FBF7E6FABDE80840FBF706BB002101209F
:10555800FBF7AEBAD0F8A43083F30B8870476FF02E
:105568008500704761B662B680F31188BFF36F8F0C
:10557800704772B6002383F31188BFF36F8FBFF3B0
:105588004F8F30BF62B6BFF36F8F704772B600237C
:1055980083F31188BFF36F8FBFF34F8F20BF80F362
:1055A8001188BFF36F8F62B6704740E800F313F4B9
:1055B800803FD8B208BF6FF01500704730B50C684F
:1055C8004B6885B00A894D890094013B24F01F047B
:1055D800234402F01F0242EA451223F01F036946E2
:1055E8008DF808200393FBF789FE05B030BD0C2227
:1055F8000369C9B201FB0233186C00F00700704759
:1056080070B5C9B20369EFF31185202484F31288B9
:10561800BFF36F8F0C2606FB0134246C14F0C00412
:1056280008D0A24206D085F31188BFF36F8F4FF0E0
:10563800FF3070BD012206FB01331A6485F311881F
:10564800BFF36F8F436803EBC1035B689847002083
:10565800EFE78022FFF7D4BFF8B5069F0469C9B207
:10566800EFF31186202585F31288BFF36F8F0C2581
:1056780005FB0144256C05F0070CBCF1010F0CD1AA
:10568800276486F31188BFF36F8FC4E90E2343683C
:1056980053F8313098470020F8BD05F0C005AF42F7
:1056A80086F31188BFF36F8F0CBF6FF077004FF050
:1056B800FF30F1E713B580240094FFF7CDFF02B067
:1056C80010BD10B41C240069CBB203FB04000021F8
:1056D80010BC10471046FDF713BD00F0D4B8FCF716
:1056E8006FBD436800205B68DB680B6070474368E8
:1056F80002EA01005B6821EA020158600020996013
:105708007047436800205B68596070474368002011
:105718005B689960704743685A68136821EA030018
:105728000B40506000209360704710B503695868BB
:10573800F8B1884219D19C680868A142586000D124
:105748009860002008602AB15A680A609A6859600F
:1057580002B99960002010E0814206D108682060F3
:1057680098688142EDD19C60EBE704460068002808
:10577800F2D1002AE8D16FF0150010BDFCF782BF06
:1057880008B50220FCF752F9002008BD08B5FEF75D
:10579800EFFA48B1002383F31188BFF36F8F042316
:1057A800184602DF6FF0040008BD034600201847C2
:1057B80000F0A6BA024610B5116891B1B1FA81F3AA
:1057C800C3F11F000123834021EA0303D2E8EF4F0E
:1057D8008C4204D1C2E8EC3FBCF1000FF6D1EBD10A
:1057E80010BD6FF00B00FBE710B50368CB40DB077B
:1057F80010D401238B40026843EA0201D0E8EF4F3E
:10580800944204D1C0E8EC1FBCF1000FF6D1F2D1EC
:10581800002010BD6FF01500FBE72DE9F843164690
:105828001F464FF006084FF0010900F160404C1E7A
:105838000444C50BE40BA54201D9BDE8F883B5FBC8
:10584800F8F008FB1051324609FA01F1C0B2B84726
:105858000135F0E7FCF750BC10B1012802D07047C1
:10586800FCF7AEBCFCF75CBD18B1012803D100F011
:105878000CB800F008B8704708B5FCF785FDBDE81E
:105888000840FCF7DDBCFCF76FBCFCF711BDF7B5B1
:105898001646DDE90847019001A81D46FCF7AEFD54
:1058A800019BB6F1000C18BF4FF0010C00EB830010
:1058B8000B1E18BF0123002D43EA4C0314BF4FF001
:1058C8000C0C4FF0000C002C43EA0C0314BF4FF4EF
:1058D800706C4FF0000C002F43EA0C0314BF4FF418
:1058E800403C4FF0000CD0F8802043EA0C0322EA39
:1058F800030301B109780EB13678760019430DB16A
:105908002D78AD0031430CB12478240229430FB11E
:105918003F783F040C433C43C0F8804003B0F0BDDF
:105928001FB50DF10F03019300238DF80F101A46D0
:1059380019460093FFF7ABFF05B05DF804FB10B5FF
:1059480004460846FCF76CFD04EB4004A08AC0F34B
:10595800401010BD10B504460846FCF761FD04EB85
:105968004004A08AC0F3400010BD10B504460846A4
:10597800FCF756FD04EB4004A08A400B10BD70B53F
:10598800044608461646FCF74BFD083034F810303C
:105998000D46DA0509D5C3F3432304EBC3023146A8
:1059A800284654F8333052689847A3682BB13146DB
:1059B8002846E268BDE87040184770BD10B5044637
:1059C8000846FCF72DFD00B204EB4000838ADA0597
:1059D8001DD5C3F3432123F4F853838204F1120243
:1059E80004F1500032F8023F13F4807F03D0C3F370
:1059F800432399420BD08242F4D1002204EBC10325
:105A08005A6004F15800BDE81040FFF7EDBE10BD24
:105A1800F0B50446002001270546844695420AD180
:105A2800D4F8443133B10023C4F84431D4F84431B4
:105A380040F40030F0BDEBB29B0003F580769B0884
:105A480007FA03F3194208D054F806E0BEF1000F34
:105A580003D044F806C0A65918430135DEE738B527
:105A680004460D46FFF76BFFB0B12046FFF772FF03
:105A780090B92046FFF779FF012322688340C2F8D6
:105A88001833236800B203EB8003D3F8102522F003
:105A98000302C3F8102538BD2846BDE83840002168
:105AA800FFF73EBF2DE9F0431746044685B0084688
:105AB800FCF7B6FCD7F800800E460546B8F1000F93
:105AC8001FD02046FFF746FF18B12046FFF737FFE3
:105AD80030BB00230DF10F02CDE900338DF80E30F5
:105AE8008DF80F30304643460DF10E01FFF7CFFE1B
:105AF8002AB204EB4202938A23F0020343F0010323
:105B080093827B68002B34D03146204693F800807E
:105B1800D3F80490FFF71EFF28B1B9F1000F1FD08A
:105B28006FF0150028E028B204EB4000838A23F4C4
:105B3800604323F020038382B9F1000F10D0B8F13D
:105B4800030FEDD87B6821685B6893F800C001EB10
:105B58008C01B8F1000F12D1C1F81085C1F8108579
:105B68002AB204EB4202938A23F01C0343EA880317
:105B78009382BB6853BB002005B0BDE8F083D1F821
:105B8800102522F00302C1F81025226802EB8C03CD
:105B9800D3F8102522F4473222F47C72C3F810257A
:105BA80041F6F072D3F8101502EA061242EA0842EA
:105BB8000A43C3F8102504EB4C03A3F85C60838AFE
:105BC80043EA4C3343F020038382C9E73146D3E9E3
:105BD80000782046FFF7F2FE002FCCD063689F4282
:105BE80006D004F15800FFF7E5FD002804DAC3E702
:105BF800A3689845F5D1002004EBC003C3E90178F8
:105C08002DB204EB4505AB8AC0B243EA402343F406
:105C18008073AB82AFE7C0E90312704770B50446E2
:105C28001546FFF78CFE48B10846FCF7F9FB04EB74
:105C380040040020A38A5B0B2B7070BD6FF0150029
:105C4800FBE790F86C00003818BF01207047FCF79C
:105C58000FBC2DE9F34104461746FFF770FE0D46C9
:105C6800266800B32046FFF775FE8046D8B920465F
:105C7800FFF77BFE05B2AD0005F5807246F802809D
:105C88002168B2582944D1F8102542F00102C1F820
:105C980010252FB10122216802FA00F3C1F814334C
:105CA80002B0BDE8F081D6F8143328469B035CBFE8
:105CB8004FF40033C6F81433FCF7B2FB04EB40048E
:105CC800A38AC3F38203042B11D0052B11D001A89A
:105CD8000195FCF793FB019BC168D94001F00101D4
:105CE8000231284602B0BDE8F041FFF719BE032192
:105CF800F7E70221F5E7FFF7B2BEC9B2FCF7FEBF2E
:105D080008B1FBF743BD704710B5436904463BB97A
:105D18000020E2684042537843F00103537010BDFD
:105D280098470028F4D00028B8BF4042FF28A8BFF1
:105D3800FF20E3681870ECE7EFF31183202383F367
:105D48001288BFF36F8FFEE708B5FFF7F5FF202431
:105D580008B5EFF3118384F31288BFF36F8FFFF751
:105D680008FCF6E790F90E308B4201D0FDF786BBB0
:105D780000207047EFF30580003818BF01207047F6
:105D8800D0E9003213605A600023C0E9003370473D
:105D980008B5FFF7F5FF437B23F0020343730023A5
:105DA800836008BD38B504460D46FDF7D5FA637B18
:105DB80043F002036373E5B1A5602B689D4209D1E6
:105DC8006B68C4E900531C606C6012E06A689A4210
:105DD800F6D01B68002BF3D094F90E2093F90E101F
:105DE8008A42F3D09142F1DD5A68C4E90032146066
:105DF8005C6038BD10B5EFF31184202383F312885B
:105E0800BFF36F8FFDF766FA84F31188BFF36F8FC6
:105E180010BD38B5EFF31184202383F31288BFF344
:105E28006F8F002390F86C50427B80F86C302DB156
:105E380021B184F31188BFF36F8F38BD12F0280F9A
:105E4800F7D183680BB1FFF7A3FF437B23F004036B
:105E58004373FDF73FFAECE701211838FFF7D9BF84
:105E680070B505460E46FDF735FCB6F1FF3F08BF95
:105E7800B5F1FF3F0446284612D04FF47A7547F62D
:105E88001120002147F612220023C4FB0501FAF76E
:105E980017FBB0F1004F71F1000128BF6FF000400F
:105EA80070BD08B5C3171F3043F10003400940EA2D
:105EB800C360C117FDF70EFC400108BD2DE9F04194
:105EC80005460E461746EFF31188202383F3128800
:105ED800BFF36F8F0468A0420FD1002088F31188A8
:105EE800BFF36F8FBDE8F08139462046B0470028E0
:105EF800F4D16B68A342F0D02468002CF4D1ECE70D
:105F080008B50246FDF792FD70B1D0E904319B1A3D
:105F180061EBE272B3F1004F72F1000104DA002A7A
