:10000000E01700202D0F0000BB420000190F000078
:10001000190F0000190F0000190F00000000000068
:100020000000000000000000000000006D10000053
:10003000190F00000000000005100000190F00005B
:10004000E1110000E1110000E1110000E1110000E8
:10005000E1110000E1110000E1110000E1110000D8
:10006000E1110000E1110000E1110000E1110000C8
:10007000E1110000E1110000E1110000E1110000B8
:0404C000E111000046
:1004C40053B94AB9002908BF00281CBF4FF0FF31B7
:1004D4004FF0FF3000F00CB8ADF1080C6DE904CE1C
:1004E40000F008F8DDF804E0DDE9022304B0704709
:1004F400704700BF2DE9F04786468C460846089EA3
:10050400154674461946002B40F0C1808542B2FA64
:1005140082F245D94AB1C2F1200300FA02FC9540A7
:1005240094402EFA03F343EA0C0C4FEA154EA8B29A
:10053400230CBCFBFEF80EFB18CC08FB00F943EAC5
:100544000C43994528D9EB1808F1FF3704D2994593
:1005540002D9A8F102072B44A3EB0903A4B2B3FB0D
:10056400FEFC0EFB1C330CFB00F044EA0344A042E7
:1005740014D92C190CF1FF3304D2A04202D9ACF1E6
:1005840002032C44241A43EA07401EB1D44000233A
:1005940034607360BDE8F0874746DDE76346F1E702
:1005A40092BB431B01214FEA154EAFB2200CB3FBA3
:1005B400FEFC0EFB1C330CFB07F840EA0343984592
:1005C40061D9EB180CF1FF3004D2984502D9ACF193
:1005D40002002B44A3EB0803A4B2B3FBFEFC0EFB06
:1005E4001C330CFB07F744EA0344A7424DD92C19EA
:1005F4000CF1FF3304D2A74202D9ACF102032C441C
:10060400E41B43EA0040C0E7C2F120039540944054
:1006140020FA03F12EFA03F34FEA154E9040AFB2DD
:100624000343B1FBFEFC0EFB1C10190C0CFB07F87A
:1006340041EA0041884522D969180CF1FF3004D2FF
:10064400884502D9ACF102002944A1EB08019BB210
:10065400B1FBFEFC0EFB1C110CFB07F743EA014344
:100664009F420ED9EB180CF1FF3104D29F4202D9FC
:10067400ACF102012B44DB1B41EA004193E76046E5
:10068400E3E76146F7E76046A4E76346B8E78342D9
:1006940006D916B9002108467CE7C6E900E0F9E767
:1006A400B3FA83F78FB9834201D3724508D8BEEBFE
:1006B400020460EB030301209C461EB9002169E794
:1006C4003846FAE7C6E9004CF8E7C7F1200CBB400E
:1006D4000EFA07F522FA0CF42EFA0CF1BA401C4378
:1006E40020FA0CF3B8404FEA144901431FFA84FE80
:1006F400B3FBF9F809FB18300B0C08FB0EFA43EABC
:1007040000439A4540D9E31808F1FF3004D29A45D2
:1007140002D9A8F102002344A3EB0A0389B2B3FB74
:10072400F9F809FB183308FB0EFE41EA03418E4534
:100734002CD9611808F1FF3304D28E4502D9A8F1EF
:100744000203214443EA0040A1EB0E01A0FB0298FE
:100754004145CE46434602D306D14D4504D2013825
:10076400B9EB020E68EB0403002EA7D0B5EB0E0222
:1007740061EB030101FA0CFC22FA07F3F9404CEA9D
:100784000303C6E9003199E74046C5E74346D9E784
:1007940008B501F06DF9044AD2F8183523F00E03B8
:1007A400C2F8183503F079FC00F00C40014B1B68CB
:1007B400184700BFB800002030B585B004460D4688
:1007C40010220021684604F08FFA02238DF80230CB
:1007D400044B2A4621466846019303F013F905B0F9
:1007E40030BD00BFB107000080B505460E46174670
:1007F400984602F069FD034604F0F0FA0446DFF877
:100804001890424649F8003039463046A84754F813
:10081400090000F0DFFB00BF080000002DE9F047ED
:10082400058B04462807904611D4022905F00705D4
:1008340040F0CC80204603F03AFC78B10138218B9B
:10084400042811D8DFE800F0C2106D859500012955
:100854000CBF45F0100545F02005258388F3118869
:10086400BFF36F8FBDE8F08701F0070AAA4500F0D7
:10087400A5800027B9463E46A368002B00F0BC8043
:1008840041F00801218388F31188BFF36F8FA168B9
:10089400002900F0BA800D68002900F0B6803346C4
:1008A40052462046D1F80480C047002D76D02B68EC
:1008B40029461D46F0E701F007035A1F012A1BD8F9
:1008C400002221F00701062B276889B2C4E900221F
:1008D40009D13B4603E0628B013262831B68002B23
:1008E400F9D141F002012046218303F0E0FB002806
:1008F4007AD041F0200176E0042B0AD121F00701DF
:1009040089B22046218303F0D2FB10B141F02001CB
:100914002183218B01F0070AAA454FD00027B9464D
:10092400AAE7236921F0070141F00601062DD3F857
:10093400009021832DD1B9F1000F3FD041F008017F
:10094400218388F31188BFF36F8F20463949C84744
:1009540029E021F00701236941F0040189B2042D43
:10096400D3F804902183E6D000274FF0040A3E46D2
:1009740082E721F00701236941F0050189B2052DC1
:10098400D3F808902183D6D000274FF0050A3E46BD
:1009940072E700274FF0060A3E466DE72B4687E7CD
:1009A400B9F1000FD1D1EFF31188202383F312881A
:1009B400BFF36F8F238B23F008032383258BEA0671
:1009C4002ED525F01003238305F007056669218BD6
:1009D400002EBFF670AF00232768C4E9003321F06E
:1009E400070141F001012183218B4FF0000901F03F
:1009F400070AAA457FF440AF002F9CD041F00801BC
:100A0400218388F31188BFF36F8F002FC8D03D680E
:100A1400394633465246204603F075FB2F46F4E729
:100A2400AB067FF51BAF25F02003238305F00705F4
:100A340000E700BF3741000008B5044803F020FB7D
:100A4400034803F01DFB002008BD00BFC45800008C
:100A5400F958000008B50348034A0021121A03F0AC
:100A640022FC08BD18020020DC0A0020074808B553
:100A7400074A0849121A03F018FCBDE80840064862
:100A8400064A0749121A03F010BC00BF00000020F8
:100A940018020020805D00000000002000000020FB
:100AA400805D000038B505460C4699B1D1E90123B3
:100AB4000F48096803F0E4FAD4E90423E1680D4817
:100AC40003F0DEFAE1690C4803F0DAFAA1690B4895
:100AD40003F0D6FA012D05D1EFF30581084810394A
:100AE40003F0CEFA21462846BDE8384001F0B2BEF4
:100AF40027590000575900008759000097590000F2
:100B0400C659000030BFFFF7FDBF00BF2DE9F0411B
:100B140005460B4EDFF82C80324606EB0807CC1B4B
:100B24002046094904F0D3F8A01942460021083CA4
:100B340004F0DAF8C5F8A44007F10800BDE8F08134
:100B440000000000040000001C580000054B5A6916
:100B54009B689A421FBF044A536843F08053536012
:100B6400704700BF1C05002000ED00E010B5204CCC
:100B7400204803F085FAA36A990137D51E4803F08B
:100B84007FFA1E20A36ADA0103D51C4803F078FA21
:100B94001F20174CA36ADB0203D5194803F070FA2F
:100BA4000220A36A1C0303D5164803F069FA212026
:100BB4000F4CA36A590303D5134803F061FA2220AA
:100BC400A36A9A0303D5114803F05AFA2320084C68
:100BD400A36ADB0303D50E4803F052FA2420A36A68
:100BE4006FEA03436FEA1343A36210BD1D20C9E7F4
:100BF40000ED00E0DA590000F3590000075A000044
:100C0400225A00004D5A00006C5A0000925A00000B
:100C1400AD5A000070B5204C064620480D4603F03E
:100C24002FFAA36AD90435D51D4803F029FA1720F1
:100C3400A36A1A0503D51B4803F022FA1820164CA0
:100C4400A36A9B050FD5184803F01AFAA16BA36A8F
:100C5400180407D5154803F013FA1EB1A36A23F448
:100C64000043A36219200C4CA36A5A0503D510480B
:100C740003F006FA1A20A36ADB0503D50D4803F036
:100C8400FFF91B20044A936A43F47F4393620023D1
:100C94002B7070BD1620CBE700ED00E0D95A0000A0
:100CA400F05A0000025B0000165B0000305B00009D
:100CB400465B0000625B000070B51F4C06461F488F
:100CC4000D4603F0DDF9A36AD90632D51C4803F0BA
:100CD400D7F91120A36A1A0703D51A4803F0D0F9EB
:100CE4001220154CA36A9B070FD5174803F0C8F9C7
:100CF400616BA36A180607D5144803F0C1F91EB145
:100D0400A36A23F08003A36213200B4CA36ADA07BF
:100D140003D50F4803F0B4F91420A36A064ADB068E
:100D240058BFA36A936A43F0FF03936200232B70B6
:100D340070BD1020CEE700BF00ED00E07B5B00003B
:100D4400925B0000025B0000C65B0000DF5B0000FA
:100D5400F65B00002DE9F0415B4B04465F6800251B
:100D64008AB0C7F3080685F31188BFF36F8F02F0CA
:100D74007F43B3F17F4F06D102F00C03082B13D14C
:100D8400524803F07DF900252C464FF00008F31E6D
:100D94008DF80780092B00F28580DFE803F00A79DB
:100DA4007D7583838383838110074CBF0C460125A3
:100DB400EBE74748444E03F063F98DF80780F36A84
:100DC4009A0704D5434803F05BF900232FE0F36A44
:100DD400002B01DA4048F6E7F36A5B00F5D53F489B
:100DE40003F04EF97369A26943F480737361BFF32E
:100DF4004F8FBFF36F8F736932F8022C23F4807323
:100E04007361BFF34F8FBFF36F8F4DF602739A4236
:100E140008D0B36ADBB24BB301200DF10701FFF731
:100E24004BFF33E021682E4803F02AF923689DF82C
:100E34000720C2B902AE04F1200732462068616877
:100E4400083403C2BC421646F7D1099AB5B3C2F3BB
:100E5400080121B96FEA52226FEA42220992184628
:100E640002A9FFF71FFE0AB0BDE8F081B36A13F4CC
:100E74007F4F05D001200DF10701FFF7CBFE05E000
:100E8400B36AB3F5803FA0D3FFF770FE0346CEE705
:100E940000200DF10701C2E700200DF10701ECE786
:100EA400104890E7104B17F4F87F1049104818BF0A
:100EB4001946A6F1100203F0E3F886E722F4FF7264
:100EC40022F00102CAE700BF00ED00E0445C00002C
:100ED400705C0000885C0000AA5C0000B95C000043
:100EE400D95C0000F65C00002B5C0000165C00007E
:100EF4001B5D0000064B5A6942F010025A615A69A0
:100F040042F480625A615A6922F008025A617047B9
:100F140000ED00E0EFF30880EFF3098101B57246BC
:100F2400FFF718FF01BD00BF002080F31488BFF352
:100F34006F8F002080F30A8880F30B88104880F3B9
:100F4400088800200F49087000F018FE00200E49A0
:100F54000860BFF34F8F00F01BF8202080F3118846
:100F64000A484FF40061401880F30988EFF31480B5
:100F74000221084380F31488BFF36F8F03F0A6F9AE
:100F8400E0170020D80A002094ED00E0E00A0020D9
:100F940072B6002383F313884FF0FF300C4A03F139
:100FA40020010133102B42F82100F8D100234FF027
:100FB400FF30074A03F160010133102B42F821008E
:100FC400F8D162B6BFF34F8FBFF36F8F704700BF86
:100FD40000E100E0084B9B6883420BD1EFF30583EB
:100FE40043B1064B5A6842F080525A605A6A22F45E
:100FF40000425A6202F06EB91C05002000ED00E0C8
:1010040016498A684FF030001044EFF3098C80E8E9
:10101400F01F202080F31288BFF36F8F104F4FF022
:1010240000664A698A603E60D2F8A4000D4C2060D4
:10103400D2F8A8000023C2F8A83080F3118802F186
:10104400300090E8F01F8CF3098802F1000004B529
:1010540003F047F9BDE80440704700001C05002078
:1010640004ED00E0700400201EF0040F0CBFEFF349
:101074000880EFF30980816911F8021C0229FFD06E
:1010840001B5724603F013F901BD00BF00B2002898
:1010940007DB01234109034A00F01F00834042F8A3
:1010A4002130704700E100E000B200280CDB01228F
:1010B4000649430900F01F008240203341F82320F1
:1010C400BFF34F8FBFF36F8F704700BF00E100E0A5
:1010D400054B420953F82220012300F01F0003FAB4
:1010E40000F01040704700BF00E100E000B20028AB
:1010F40001F10101ACBF00F16040064B4FEA411120
:10110400C9B2ABBF00F5614000F00F0080F80013D6
:101114001954704714ED00E0044B054A23F07F0393
:101124009360BFF34F8FBFF36F8F704700000000D1
:1011340000ED00E042F8203C009B0B4942F81C3CC7
:10114400019B21F0010142F8183C029B42F8081C63
:1011540042F8143C4FF0807342F8043C0023203AD8
:101164000265C0F8A8307047ED07000000B50E4BCB
:1011740015469860D0F8A4200C4B0E461A60D0F89F
:10118400943083F30B882C4686F309880020044BA3
:1011940098472046002100220023024C20470000EB
:1011A400F7420000ED0700001C0500207004002039
:1011B4001022014B1A61704700ED00E0002320204B
:1011C40040F2211210B5044CE1180133934281F826
:1011D4000003F9D110BD00BF00E100E008B5EFF352
:1011E4000583064A103B02EBC30152F833004968F9
:1011F4008847BDE80840FFF7A9BC00BF904E000037
:1012040008B50649064821F00701C1F1005202F56C
:10121400C03202F0DBFE002008BD00BFE71700204B
:101224007404002008B5244A244B1A6000F082F8A4
:101234004FF47A612248D0F82436C3F30802C3F38A
:1012440009434B4382F480721E49883201FB023306
:101254004FF4FA215B00B3FBF1F201FB12331A499C
:10126400B3F57A3F28BF0132C1F80429D0F82036FB
:101274004FF47A60C3F30802C3F30943434342F2D1
:101284001C5082F4807202F2172200FB02334FF4E6
:101294007A701B0AB3FBF0F200FB12330020B3F5A3
:1012A400FA7F4FF0010328BF0132C1F81C27C1F8AF
:1012B4000009C1F8003608BD0020A107C0010020C4
:1012C40000C0FF00F82A00800000124048B1054B1E
:1012D400054A1B68B3FBF2F35843044B43F0010384
:1012E40018477047C001002040420F0030580000EA
:1012F40008B500224FF4C0314FF0005000F0ACFCB0
:101304000A4AD2F8183523F00103C2F818354FF011
:10131400FF32074BC3F80026012203F59033C3F8CC
:101324000025BFF34F8F20BFFDE700BF00F00C4046
:1013340000E010400122024BC3F80424704700BFB0
:10134400002008E0084B70B5C31A0D4607499B10EE
:10135400044659434022064802F0F7FF2B46014653
:101364002046BDE87040184794040020B76DDBB6F2
:101374003C4E0000402373B50B4C0093041B0B46FA
:101384000D460A49A41061430646094A094803F078
:1013940008F8011E05DA30462B4602B0BDE870405D
:1013A400184702B070BD00BF94040020B76DDBB6CF
:1013B400114400003C4E0000F8B50022012105460E
:1013C4004FF48770FFF792FE0F4800F051FC04467B
:1013D400B8B900F06DFC2F690C49384602F0B6FE2E
:1013E400031E09DB01263E642D69084905F11C0032
:1013F40002F0ACFE031E02DA1C462046F8BDEE6481
:10140400FBE76FF00404F8E74115000058580000AA
:101414001FB500220123CDE902236B46084ACDF80B
:1014240000D0CDF804D002F0EAFF002805DB43F633
:1014340009520023684601F033FC05B05DF804FB53
:101444002344000010B5EFF31184202383F31288A2
:10145400BFF36F8F074A136823F00201DB071160A3
:1014640002D4012003F0A2F884F31188BFF36F8F34
:1014740010BD00BFE40400200C22104B014602FB07
:101484000033002030B4D3E90E529863EFF3118097
:10149400202484F31288BFF36F8F1C6C04F0C00403
:1014A40044F002041C6480F31188BFF36F8F1DB1F4
:1014B4002B4630BC0248184730BC704794040020C7
:1014C4003C4E000010B4EFF31182202383F3128802
:1014D400BFF36F8F1648016841F002040460C80727
:1014E40007D482F31188BFF36F8F012010BC03F07F
:1014F40055B81049D1F80C14C903F2D5EFF3118093
:1015040083F31288BFF36F8F0B490B6C03F0C00396
:1015140043F002030B6480F31188BFF36F8F82F3EF
:101524001188BFF36F8F002010BCFFF7A5BF00BF69
:10153400E404002000E0104094040020022808D0B5
:10154400042808D1044B186C10F0070003D1FFF7EE
:1015540093BF0120FBE7704794040020C3B21C2012
:10156400014A03FB00207047940400202DE9F04158
:10157400012207463449D1E8EF3FC1E8E02F0028B3
:10158400F9D133B9314932484B60CB608A6002F0FB
:10159400F0FD7B1E012B28D8012F06D12D4BD3F84B
:1015A400503403F00303012B1FD003F079FA0546EE
:1015B400E8B9294B1B78D3B104220646254BC3F85E
:1015C4000823244CDFF89480D4F84C24D4F84C3409
:1015D400D20315D503F00303012B01D0012F0FD142
:1015E4006DB386F31188BFF36F8FBDE8F081EFF31D
:1015F4001186202383F31288BFF36F8F0125E0E760
:10160400C5B1304602F089FED4F8403413F0FF032C
:10161400DAD1D4F80821002AD6D0C4F80831D4F895
:1016240008314FF480420123C4F84034C8F8A021A3
:101634002361C9E70021202003F0A2FAE4E7042291
:10164400044BC3F80423D0E7900400208004002056
:10165400B004002000E01040D80A002000E100E0BF
:10166400F0B544681646A068227C01F01F0587B0D7
:1016740045EA421500286CD0B6F5001F04D129466E
:1016840003F0D2F9002055E06268607CB6F5800F63
:1016940050624FF0000001AA0190506037D1B3F1BD
:1016A400007F14BF052304238DF804300023CDE903
:1016B40004230393E3680DF1030723FA01F111F006
:1016C400010139D1B6F1A07F36D105F01F036A09B3
:1016D40003F1200326D0012A3ED1214A52F82330B7
:1016E400DB0729D43A462946A06803F032F91630BC
:1016F4001AD002972946A06803AA03F073F80028B9
:1017040018DB01222946A06803F03EF9BAE7B3F1D9
:10171400C06F05D0B3F1007F14BF01230223C3E7D8
:101724000323C1E70F4AD9E73946A06800F04AFD10
:101734000028DEDA07B0F0BD3A462946A06803F077
:1017440008F90028D6D19DF80310A06800F030FDF8
:10175400D0E76FF08500EDE751F82330FFDE00BFDE
:1017640000820D4000A010404209012A034670B5D2
:1017740001D0BAB170BD0D4E326951680029F9D05B
:10178400012503F01F030C689D400029F2D08A68EC
:101794002A4002D030464B6898472CB12368214632
:1017A4001C46F2E7024EE7E72346F8E7744E0000D2
:1017B400584E000038B54568A868C0B103F0DCF89D
:1017C4000146A0B9A86800F0BBFC044688B90246EB
:1017D4000949A86803F0BAF822460121DA20FFF784
:1017E40085FC224601214FF48670FFF77FFC002020
:1017F40038BD6FF00400FBE76D1700002DE9F043DE
:1018040040F206364768D00648BF4FF0030C3B7CD5
:1018140002EA060658BFC2F3401C87B001F01F0558
:10182400B6F5837F144645EA43158DF803C044D0CA
:101834000DD8062E43D005D8A6B1022E12D06FF0D3
:10184400150037E0B6F5807FF9D101260AE040F2B1
:101854000222964235D0B6F5407F34D0B6F5007FEB
:10186400EDD104260123220303FA01F12DD57B686F
:101874005960B86880BB05F01F036D092AD0012D9B
:1018840073D13C4A02EB830284F48033D2F8801093
:10189400C3F30043C4F3404444EA430421F47061B5
:1018A40044EA8C0421F00F0144EA06230B43C2F8F6
:1018B4008030002007B0BDE8F0830926D2E708266F
:1018C400D0E70626CEE70526CCE7630344BF7B6852
:1018D4009960CEE7284AD5E729460DF1020203F0C4
:1018E40038F814F4403F80460CD12946B86803F018
:1018F40049F8B8F1000FDCD19DF80210B86800F087
:1019040057FCD6E74FF0000901ABCDE90199CDE9C9
:101914000439CDF80C902946B86803AA02F062FF96
:101924004845C6DB14F4003314D09DF8033084F426
:101934008034C4F300448DF80E308DF80C608DF8BB
:101944000D404B462946B86803AA00F083FB0028E3
:10195400CFDAAEE7CDE904330DF10303039329464F
:10196400B86803AA02F03EFFF1E7203350F82330B1
:10197400FFDE00BF00820D4000A0104070B40D4C8B
:10198400D4E90065901B63EB0501400940EAC1609E
:101994004101891945EBD065C4E9001500240025EF
:1019A4000549C1E90023054BC3E9004570BC01F0BA
:1019B4008FBE00BF38020020200200203002002029
:1019C40008B500220121E220FFF790FB164A00200F
:1019D400D2F8183723F44033C2F8183700F05CFD0E
:1019E400002820DB0120114900F0E2FD00281ADB69
:1019F40000F02AFD0E4B20F01F00C3E900010D4B3F
:101A04000022C3E900014FF0FF304FF0FF310A4BD1
:101A1400C3E90001094B0A49187A00F027FD7F2227
:101A24000020084B1A6008BD00200E40BC010020B5
:101A3400380200201802002020020020B4010020F7
:101A4400811900000005002008B500F0FDFC064ADD
:101A5400D2E90032C01A054B61EB0201C3E900016F
:101A6400400940EAC16008BD38020020300200206D
:101A740010B500F0EFFD0120FFF770FD02F0D0FB80
:101A8400BDE81040054B064A1B684FF47A70B3FB5F
:101A9400F2F35843034B43F001031847C0010020FD
:101AA40040420F0040580000F7B5224B0146224F38
:101AB400187A224BD7E90056D3E900239E4208BF87
:101AC400954211D1B1F1806F0ED24901012938BF7D
:101AD400012101224D1946F10006C7E9005603B061
:101AE400BDE8F04000F03EBE154BDFF858C0D3E926
:101AF4000043DCE9002CA41843EB0C0C4FF0200E3F
:101B040022466346C1FB0E23954276EB0301C7E9E7
:101B140000230DD2291B66EB0C04C82974F10004C0
:101B2400B4BF01210021009100F0E6FD03B0F0BD37
:101B34000021F8E7B4010020280200202002002040
:101B4400380200203002002003689A070CD503688D
:101B5400DB070DD50922074BC3F80C250F22C3F868
:101B6400042501221A60FEE7034B0360EF3B036088
:101B7400704700BF00801040F000FA5008B5012300
:101B8400244A2548C2F80038244AD2F84023342A8B
:101B940004BF234AC2F80C34FFF7D6FF0830FFF71E
:101BA400D3FF00F5FC70FFF7CFFF0022D30003F54D
:101BB4007F0303F54043D3F8001401310AD0D3F86E
:101BC400001439B1D3F800140132D3F80434402A94
:101BD4000B60EBD1134BD3F80026D20714D4124B6D
:101BE400D3F8182522F00302C3F81825D3F81825D2
:101BF40042F00302C3F818250C4AD2F88C3043F49F
:101C04004063C2F88C3008BD6FF00102C3F80026AF
:101C1400E5E700BF0000124000F50E4000C0FF00E1
:101C24000030054000E0104000E0044000ED00E01A
:101C3400084B000103442AB1D3F808251143C3F823
:101C440008157047D3F8082522EA0102C3F80825CD
:101C5400704700BF00F00C40014B02F083BC00BF92
:101C6400351C0000014B1B68184700BF0405002009
:101C740010B50C4C237993B9012323710A4B002826
:101C8400206018BF184600F0F3F850B923680748DD
:101C9400002B08BF1846BDE8104000F035B86FF0BF
:101CA400770010BD04050020691C00009D4500005C
:101CB40008B5074B1B6853B14FF48770FFF708FA58
:101CC40028B9BDE808404FF48770FFF7DFB908BDB5
:101CD4000405002038B504230A4C42F21075C4F8F8
:101CE4000833012363610023C4F80831D4F80831B0
:101CF400D4F84C34DB0304D5012002F0FEFB013D93
:101D0400F6D138BD00E01040064A13793BB90121F1
:101D140010601171044A1846C2F8403470476FF0DD
:101D2400770070470C05002000E0104010B51D4BF3
:101D34001D4CD3F84C14D3F84C2411F4803F18D024
:101D440002F00302012A03D00AB1FFF7C3FF002205
:101D5400144BC3F840240022C3F80821D3F8082107
:101D640001221A61226872B9D3F80821002AFBD033
:101D740011E0D3F84824D107E9D5D3F850249207C9
:101D8400E3D422681AB10422C3F8042310BDD3F8A3
:101D94000821002AFBD00022C3F80821D3F8083117
:101DA400F4E700BF00E010400C050020F8B5012561
:101DB400184C194ED4F80C3303F00C0303B9F8BDD6
:101DC400B3FA83F30027C3F11F039A0002F580726C
:101DD40092B202F1804202F58712176005FA03F10C
:101DE400022B1268D8B2C4F8081310D1D4F84C34BA
:101DF400D4F84C349B070AD10423C4F84054C4F8E3
:101E040004332561D4F80C3303F00C03D6E73368AC
:101E14009847F7E700E010400C050020712238B520
:101E2400104B0021C3F80823012242F210745A60B7
:101E3400C3F80011D3F800110B490A4DD1F840132F
:101E4400342908BFDA60D5F80C3413F4803305D094
:101E5400012002F052FB013CF5D138BD034A537115
:101E6400FBE700BF00E0104000C0FF0014050020A5
:101E7400054B0246187918B91A6001221A71704785
:101E84006FF07700704700BF140500200022164B46
:101E9400C3F81021D3F81011C3F81821D3F818117E
:101EA400C3F81421D3F814111049D1F8401334297C
:101EB40004BF01219960C3F80021D3F80021012255
:101EC4001A600B4A126852B9074BD3F80021002A52
:101ED400FBD00022C3F80021D3F8003170477122EF
:101EE400C3F80423704700BF00E0104000C0FF00A7
:101EF40014050020F8B50126194C1A4DD4F80C33FA
:101F040003F0710303B9F8BDB3FA83F30021C3F1FD
:101F14001F039A0002F5807292B202F1804202F528
:101F24008712116006FA03F7042B1268D8B2C4F8BA
:101F3400087308D0062B10D02B689847D4F80C33BC
:101F440003F07103DEE702236B71C4F81411D4F8B3
:101F540014312023C4F80433EEE76971ECE700BFC1
:101F640000E0104014050020036803F01F025B0921
:101F7400026004D0012B034818BF002070470248B8
:101F8400704700BF00820D4000A01040034A43097F
:101F9400D35C00F01F001844C0B27047535D0000CA
:101FA400034611F0010010B5CCB20BD1A207C4F363
:101FB40040000DD5074A106A58601062003818BFF7
:101FC400012005E004490A6A1A600A62002AEDD079
:101FD40010BD00BF00820D4000A01040F7B50446BC
:101FE4000846FFF7D3FF04EB4006B38A0D46DB0730
:101FF4002AD5204602F0D4FB2946204602F041FBB4
:1020040050B1204602F053FB0023276807EB800001
:10201400C0F81035C0F810352946204602F070FB90
:10202400002101A8B1820195FFF79EFF019B00EBFF
:102034008300D0F88020064B134043F00203C0F81D
:102044008030084603B0F0BD6FF01500FAE700BF1A
:10205400F0F0FCFF2DE9F043044685B00846154630
:102064001F46FFF793FF0E46804625B3204602F035
:1020740013FB18B9204602F004FB18BB04EB480913
:10208400B9F8143013F01C0F02D06B78012B19D05F
:1020940001238DF80F3000233046CDE900536A1C2C
:1020A400AB1C0DF10F0102F094FAB9F8143043F0AF
:1020B4000303A9F81430002F3ED03146204602F025
:1020C400EBFA20B96FF0150005B0BDE8F0830022EB
:1020D400397823684FEA810C03EB8103C3F8102598
:1020E400C3F8102504EB4802938A23F4604323F0D9
:1020F400200393827D78FDB12468B8786444D4F8D1
:1021040010750E4B2D043B40C4F8103541F6F073A6
:1021140005F4403503EA06130005D4F810752B4383
:1021240000F4801003433B43C4F81035938A43EA18
:10213400413343F0200393820020C5E70FE0ECFF16
:1021440070B590F87840054690F8796044BB4A220F
:102154002146143002F0C8FD2146134A2B6852F878
:1021640036608E4212D100241048C3F840418342A5
:1021740014BF4FF48670DA20D3F84021FEF786FFAF
:102184000123204685F878306B6670BDCAB2920090
:1021940002F58070402A04BF1C501A580131E0E750
:1021A4006FF07700F1E700BF9C58000000A00D40DD
:1021B40090F87900024B03EB800002F0BAB900BF3B
:1021C400C401002010B5064B90F879000C4603EBCF
:1021D400800002F094F90028A4BF2070002010BDF4
:1021E400C40100202DE9F04F814659F804BB90F852
:1021F4007940DBF804136B4BC9B241F4803180465B
:1022040053F8342058468BB002F0A3FAC1030546B4
:1022140035D50023CDE90833624BE60003EBC40453
:10222400636808A819460193FFF7BAFE331D0393A8
:102234005D4B0DF1200A02930023029A009312F8D9
:10224400013B58490292039A02EBD3028A5C03F0E1
:10225400070322FA03F3DA0719D4009B0AF1040AEC
:102264009BB14FF480310022584602F072FA019972
:1022740008A8FFF795FE0028DAD125F4803501245B
:10228400002D78D10BB0BDE8F08F0123D5E7009B7A
:10229400464A13440493DAF800100029DDD091FA79
:1022A400A1F1B1FA81F1049B1C7841EA441420465F
:1022B400FFF76CFE08EB4000878AC808BB0805934B
:1022C40001231AF8002001F0070103FA01F122EAC0
:1022D40001020AF8002007A80794FFF745FE079AB1
:1022E400059B203250F82220C7F382065B0737464D
:1022F400C2F3014223D54846D6B221463A4602F0FB
:10230400E0F907A80794FFF72FFE079B203350F846
:102314002330C3F301439E4207D10021204602F03B
:10232400A1F93146204602F09DF907A80794FFF76A
:102334001BFE0122079B02FA03F30362ABE7022AA6
:102344000DD10321204602F08DF906F00503012B7F
:10235400EBD13A462146484602F0B3F9E5E70221BB
:102364002046059202F07EF9032EF2D0059A032A44
:10237400DBD1022EECE795FAA5F3B3FA83F304FA62
:1023840003F225EA020503F5A2725BF8222008EBAA
:1023940043034846B3F86810C2F3014202F091F9CE
:1023A4006EE700BF9C580000635D0000635D0000A1
:1023B4000123034A03FA00F09368034393607047D0
:1023C400000000200123044A03FA00F0936823EA82
:1023D40000039360704700BF0000002073B50446FB
:1023E4000191EFF31186202383F31288BFF36F8FDB
:1023F4000B4D019B6A6801A81340019302F07FF81A
:10240400002807DB01226B68824023EA02036B6029
:102414002070002086F31188BFF36F8F02B070BD67
:1024240000000020074B027AD3F8101521F00101B7
:102434000A43C3F810250268C3F8A4264268C3F807
:10244400AC26704700200E404FF0FF306FF0404143
:1024540030B5054CD4E90023904271EB0305F9D360
:102464001046C3F3130130BD20270E4030B50C25B0
:10247400074B1C1894F86C4005FB0433C3E90312A2
:1024840018750123034A8340C2F8043330BD00BFEA
:102494000000002000200E40F0B53D4D85B02C78A2
:1024A400002C6ED13B4A01AB07CA83E807003A49C6
:1024B4001846D1F8102522F00202C1F81025FFF7C2
:1024C400B1FF07237F2202F001012144013BCCB27A
:1024D4004FEA5202F7D1072C56D119464FF0010C9E
:1024E4002B4E00247F20CFB204E00CFA02F220EA43
:1024F4000200013490FAA0F25FFA84FEBE45B2FAFB
:1025040082F2F2D30131327507292A4482F86C70C1
:1025140006F10C06E5D10121002420489A0801FAAD
:1025240002F2520618BF1C500433302BF6D1E220BD
:10253400FEF7ACFD184B1A49D3F8102503F5C07308
:1025440022F00202C3F8902340F6FF72C3F88821F8
:1025540000221A60A3F5807004338B420260F8D124
:1025640001240D4B0F4A1C660F4B5D201B68B3FB07
:10257400F2F358430D4B2343984700202C7005B0C9
:10258400F0BD6FF07700FAE76FF08B00F7E700BF5C
:10259400000000202058000000200E4000210E40C2
:1025A400B0210E4040420F00C001002050580000EE
:1025B40038B5254B0C46D3F8102595073DD4D3F8F0
:1025C400102542F00202C3F81025C0B1D3F8282721
:1025D40012F0010202BFD3F8281741F00101C3F839
:1025E4002817194BD3F82017D3F824174900F9D426
:1025F4002AB9D3F8282722F00102C3F82827134B5D
:10260400134A1B681049B3FBF2F303EB4313BBB14A
:10261400D1F82027D1F8245715F080450BD14FF07D
:10262400FF312046FFF7DAFE002803DB2078FFF7AE
:10263400BFFE284638BD013BE9E76FF07700F9E7B4
:102644006FF07300F6E700BF00200E40C0010020C9
:1026540040420F002DE9F047254D7F232F4657F8C0
:10266400044F4FF0000AE4434FF00109DFF884807F
:1026740004F07F04C8F808335FFA8AF1DCB9E22079
:10268400FEF712FD1B4BD3F8282722F00102C3F8F2
:102694002827D3F8102522F00102C3F81025D3F817
:1026A400102522F00202C3F8102501225A669A6608
:1026B4002C70BDE8F087AB6809FA01F63340580680
:1026C40002D00846FFF77EFE6B6826EA0306720610
:1026D40009D0002208EB0113C3F82C25E30702D527
:1026E400384601F026FF64080AF1010AC4E700BF76
:1026F4000000002000200E4070B51E461546174A03
:102704009DF81010131893F86C300F3302EBC304C8
:1027140042F833506660C6F313020401A1B104F118
:10272400804404F56224C4F82055C4F824250C4CD4
:1027340080000444236833B1FFF786FEA842B14108
:1027440001D20023236070BD04F1804303F56223AA
:10275400C3F82055C3F82425F5E700BF0000002086
:1027640000210E40F0B50E4D2B1893F86C3000018B
:102774000F3355F8334005EBC3077E68641800F146
:10278400804021F0004146F1000641EAC27100F5A3
:10279400622045F833407E60C0F82815F0BD00BFC4
:1027A40000000020F7B5284B284CD3F80C6304F143
:1027B400B0070EB903B0F0BD96FAA6F00123B0FA43
:1027C40080F08340DA43224926EA0306231893F86B
:1027D4006C50830019440C2303FB0543DB6873B37B
:1027E400D7E8EF3F03EA020CC7E8EECFBEF1000FD3
:1027F400F6D1C340DB0719D5020102F1804202F58C
:102804006222D2F82435D2F82025D1F800C0BCF1D8
:10281400000FCED04FF0000CC1F800C00C2101FB1A
:10282400054529690091E9688847C2E705F10F0366
:1028340004EBC30C54F83320DCF80430E5E70A68F1
:10284400002AB6D00B60B4E700200E400000002040
:1028540000210E4038B5EFF31185202383F312884D
:10286400BFF36F8F064B9C6802F004F985F311885F
:10287400BFF36F8F2046BDE83840FEF7ABBB00BF07
:102884001C05002038B50A4B53F82040013053F89A
:102894002050A54200D838BD606830B1037EDB0704
:1028A40001D402F0C7F80834F3E723689847FAE73D
:1028B400AC580000012270B5294B032086B01A7071
:1028C400FFF7E0FF02F0C0F90420FFF7DBFF254C1F
:1028D400254D2646AE4204F1300410D300F000FC2E
:1028E400204C224EAC4226D300F00EFCFDF750FFE4
:1028F4001F4A137B23F00103137306B070BD54F811
:102904000C3C059354F8103C049354F8143C039382
:1029140054F8183C029354F81C3C019354F8203C9E
:10292400009354E90A2354E90C0100F0DFF954F848
:10293400303C5E65CDE7D4E90A23B3F1FF3F08BF1D
:10294400B2F1FF3F05D052EA0301206803D100F041
:1029540097FC3034C6E73146183000F029FEF8E71A
:10296400D80A002098570000985700007D4B0000BB
:10297400F0020020B02370B5144E86B003FB00664D
:10298400134B012205930F23CDE903320023CDE934
:10299400013314230F4D104903FB0055044601EB8A
:1029A40000214FF4807230460C4B009500F09EF9E4
:1029B400737B2C7423F004037373094B013403EB0E
:1029C400C423EE606B6006B070BD00BF40020020FF
:1029D400655D00001C050020E01200207F4A000015
:1029E400E00A0020BFB50020FFF74CFF264B03F59B
:1029F400006282F3088883F30A880024E023234DCD
:102A0400234F85F82230EC772C766C76AC7685F8FB
:102A140020406B6A43F4E0236B6285F82340FEF7A1
:102A240069FAFEF7C5FB4FF0FF331A48AB62EB625D
:102A340000F0C2F90120FFF725FF0220164DFFF731
:102A440021FF00F095FB154B15495D61154B4FF4C3
:102A54008062059301232846CDE90343CDE901446F
:102A64003B46009400F042F906466A7B284622F071
:102A740004026A7302F054F82046FFF77BFF3A46DB
:102A840031462846FEF772FBE00A002000ED00E024
:102A9400B9280000A0030020F00200201C0500203B
:102AA400E01300206A5D00002DE9F3410446174657
:102AB4001E46EFF31188202383F31288BFF36F8F30
:102AC400C368334A7BB180689168884219D057EA59
:102AD400060318D188F31188BFF36F8F6FF00F00CE
:102AE40002B0BDE8F081916891F90E100133E36002
:102AF40093682161A36088F31188BFF36F8F00206E
:102B0400EEE72169F2E791F90E1090F90E306FF0BB
:102B14007E029942A8BF19469142B8BF11468B4222
:102B24002DDD01F0B5FF054622464146CDE900768C
:102B3400184800F01BFA0028E1D0EFF31186202397
:102B440083F31288BFF36F8FA068D0B12368216923
:102B54009C420AD04BB193F90E309942A8BF194652
:102B64006FF07E039942B8BF194601F091FF40B15E
:102B74003146084800F08EFA6FF00A00B0E70025ED
:102B8400D2E7002DF4D186F31188BFF36F8FF3E7FA
:102B94001C050020D90A0020F8B583680546002BDF
:102BA40040D0234A926893423FD1C368012B03D992
:102BB400013BC3600020F8BDEFF31187202383F3AA
:102BC4001288BFF36F8F0169806801F061FF2C6880
:102BD400A54207D10023C5E9023387F31188BFF367
:102BE4006F8FE7E7002CF5D0D4E90032002613609C
:102BF4005A60637BC4E9006623F002036373A66032
:102C040004F1180001F0F4FFAC6094F90E30204692
:102C14002B61C4F8AC6001F083FF3946054800F02D
:102C240039FAC7E76FF01500C5E74FF0FF30C2E788
:102C34001C050020D90A002070B5EFF3118620236B
:102C440083F31288BFF36F8F0468A0421BD0D4B102
:102C5400D4E90032002513605A60637BC4E900554F
:102C640023F002036373A56004F1180001F0C0FFB0
:102C74002046C4F8AC5001F053FF3146BDE8704023
:102C8400064800F007BAD0E902329A4218BF01336D
:102C9400836086F31188BFF36F8F70BDD90A00205B
:102CA40013B5EFF31181202484F31288BFF36F8FDF
:102CB400846844B1013C846081F31188BFF36F8F51
:102CC400002002B010BD52EA030406D181F311883A
:102CD400BFF36F8F6FF00F00F3E7CDE900230246D7
:102CE400014800F043F9ECE7D90A00202DE9F04F40
:102CF400984685B000F15803C0E91633129B0025AD
:102D040003730423D61D26F007064373119B01EBBE
:102D1400060A0F46C0E90655514685608373C5739C
:102D24000446DDF838B0DDF84C90FDF7EFFE109B5B
:102D3400073020F00700C4E92576C4F89C0002930C
:102D44000F9BAAEB0006CDE900B332464346394651
:102D54002046FEF7EFF90F9BC4E9188BA366109B7E
:102D64006565E366EFF31183202282F31288BFF3D3
:102D74006F8F104F3A6A3C62226783F31188BFF366
:102D84006F8FB9F1000F11D01F22494604F174006E
:102D940001F0B2FF84F89350BB680BB1D3F8A030B4
:102DA4003046C4F8A03005B0BDE8F08F84F87490C4
:102DB400F2E700BF1C05002040F2011383810023C9
:102DC400C0E92533C0F8A030014B9860704700BFBC
:102DD4001C0500206FF00A01094A9368C3F8AC107F
:102DE4000849C3F8A8004B6843F080534B600023A4
:102DF40083F31188BFF36F8F9368D3F8AC007047E7
:102E04001C05002000ED00E070B590F90D20437B17
:102E1400002A36DBD90634D11B4C63F07F032246EB
:102E2400437352F8183FE169934207D1C0E9002186
:102E34000860E06111E09942F8D01B68002BF5D0DE
:102E440090F90E5093F90E60B542F4D0AE42F2DD23
:102E54005968C0E9003108605860A569954200D0FE
:102E640005B9E568A3685A7BD20604D1DA897F2ABA
:102E740001D9AA6932B1AB4202D0284600F0FCFA6B
:102E8400656170BD6361FCE71C05002038B590F9ED
:102E94000D200146002A437B04DA03F07F034373C9
:102EA40001F004FE0D4D2A4652F8184FAB689442C7
:102EB40000D004B9EC688B4207D05A7BD20604D107
:102EC400DA897F2A01D9A2692AB1A34202D0204615
:102ED40000F0D2FA23466B6138BD00BF1C05002008
:102EE400B3F1FF3F08BFB2F1FF3F03D002491830EE
:102EF40000F05EBB704700BF7D4B000038B5194C35
:102F0400A168E0690B68814214BF1A46002249682F
:102F14000B605960A368E1692AB9134AC3E9002127
:102F24000B60E3610CE093F90E0092F90E50A84295
:102F340014D0854212DD5168C3E900210B6053604F
:102F4400A569094B9D4200D005B9E568A3689D4277
:102F540002D0284600F090FA656138BD9142DCD079
:102F64001268D9E71C05002034050020F8B5DDE916
:102F740006670D4B0C46986811460C4A1060EFF337
:102F84001182202282F31288BFF36F8F9D68284636
:102F940001F09EFD284632463B46FFF7A1FF20463E
:102FA400BDE8F840FFF716BF1C05002040050020CF
:102FB400F8B50446EFF31187202383F31288BFF397
:102FC4006F8F437B49B203F01F02002A0CBF012616
:102FD400002639D103F07F032D4D437301F066FDC4
:102FE4002A46437B817363F07F03437352F8183F8F
:102FF400934227D1E869C4E900200460EC610FE042
:103004009842F8D01B68002BF5D093F90EC06145A7
:10301400F6D08C45F4DD5968C4E900310C605C607D
:10302400AC69944200D004B9EC68AB689C4202D00D
:10303400204600F021FA6C6187F31188BFF36F8F8B
:103044003046F8BDE869DEE79B071ED5856801F0C8
:103054002DFD81732B689D4209D16B68C4E900532F
:103064001C606C60E8E76A689342F6D01B68002B2A
:10307400F3D093F90E209142F5D08A42F3DD5A68D9
:10308400C4E9003214605C60D6E78173D4E700BF02
:103094001C05002049B9EFF3058030B9054B5A6986
:1030A4009B689A4201D0FFF795BE81F31188BFF364
:1030B4006F8F70471C050020034648B9EFF3058263
:1030C40032B9064A51699268914201D0FFF782BE33
:1030D40083F31188BFF36F8F704700BF1C05002076
:1030E400EFF31181202383F31288BFF36F8F054B15
:1030F4009A68D37B013BD37381F31188BFF36F8F3D
:10310400704700BF1C05002070B5EFF31186202323
:1031140083F31288BFF36F8F144DAB68DA7B0132EF
:10312400DA732A4652F8184F944200D004B9EC6876
:103134005A7BD20604D1DA897F2A01D9A2692AB13D
:10314400A34202D0204600F097F923466B6186F330
:103154001188BFF36F8FEFF31180202383F312885C
:10316400BFF36F8FBDE87040FFF7A6BF1C050020BA
:10317400024B03F11802C3E9062270471C05002024
:1031840070B5EFF31186202383F31288BFF36F8F9A
:103194001B4CA168E0690B68814214BF1A460022E7
:1031A40049680B605960A368E1692AB9154AC3E903
:1031B40000210B60E3610CE093F90E0092F90E50CC
:1031C400A84218D0854216DD5168C3E900210B607E
:1031D4005360A5690B4B9D4200D005B9E568A3680F
:1031E4009D4202D0284600F047F965613046BDE8AB
:1031F4007040FFF7EFBD8A42D8D01268D5E700BF10
:103204001C05002034050020F8B550EA01030646E9
:103214000C4603D1FFF7B4FF0020F8BDEFF311878C
:10322400202383F31288BFF36F8F124D124BA868CB
:103234001860FFF72BFEA868234632460F49183062
:1032440000F0B6F9AA680446537B384643F00403F9
:103254005373FFF7BFFDAB68D3E90A23B3F1004F03
:1032640008BF002AD8D101F0EBFC201A20EAE07054
:10327400D3E700BF1C050020400500207D4B000063
:1032840038B50446EFF31185202383F31288BFF386
:103294006F8F437B5B070FD5183001F0A9FC637B6C
:1032A400204623F004036373FFF7AEFD2946BDE80F
:1032B40038400448FFF7EEBE85F31188BFF36F8FE3
:1032C40038BD00BFD90A0020014B9868704700BF81
:1032D4001C0500202DE9F8430446077BEFF3118514
:1032E400202383F31288BFF36F8F437B190705D51F
:1032F40085F31188BFF36F8FBDE8F883D90943F0D4
:10330400080260D14273A36813B1204601F0D6FBD2
:1033140004F1180001F06CFCA66D04F15808B045E6
:1033240011D04FF0000976B1304601F0C7FB06F129
:10333400180001F05DFC3046C6F8AC90FFF764FD60
:10334400A66DB045EFD1DFF8C480D8F808309C42B0
:1033540041D1EFF30589B9F1000918BF4FF0010914
:10336400D8F818602A4A964200D00EB9D8F80C60F2
:10337400B34202D0304600F07FF82046C8F814600B
:1033840000F0B4FF204600F0C7F8B9F1000F02D0F6
:103394002048FFF711FDD8F808309C4231D1EFF3F3
:1033A400058373BB227BD20718D42846FFF712FD8E
:1033B400FB07A1D5002383F31188BFF36F8F042388
:1033C400184602DF98E703F07F0343F008034373D2
:1033D40001F06CFB97E74FF00009C1E785F3118812
:1033E400BFF36F8F83F31188BFF36F8F04231846E5
:1033F40002DFEFF31180202383F31288BFF36F8F72
:10340400D4E785F31188BFF36F8FD1E71C05002043
:1034140034050020A0030020427B034612F01F0263
:1034240010D10A4988420DD00949086868B1D98980
:103434007F2909D893F90E20064B1B689A42B8BF1E
:10344400002070470020704710467047400200205B
:10345400CC010020440500200122044BC01A044B77
:10346400C0105843034B1A54704700BF5004002047
:10347400ABAAAAAAD90A002070B50C4B0C4D1E7C2D
:10348400FFF7CAFF182303FB06550446284601F03C
:10349400AFFB0022074B9A553CB1621E2846BDE89B
:1034A40070400549D31700F083B870BD1C05002097
:1034B40050040020D90A00205D34000038B5EFF331
:1034C4001185202383F31288BFF36F8F0F4B104AAB
:1034D4009C681068A04206D1FFF7CEFF85F31188DF
:1034E400BFF36F8F38BD00211B7C1160094AD35C88
:1034F400002BF3D02046FFF78FFF0028EED0637B2C
:10350400DB0601D1FFF7FAFC2046E5E71C050020A5
:1035140040050020D90A0020EFF31181202383F312
:103524001288BFF36F8F0A4A136A834207D11B6F55
:10353400136281F31188BFF36F8F70471346002B1A
:10354400F7D01A6F8242F9D1026F1A67F1E700BF10
:103554001C050020024B1868984208BF00207047E1
:10356400D0010020034B1B680BB9FEF76DBA002095
:10357400704700BF4805002030B570B10B4B5B6845
:1035840098420AD0036843B1D3E90421D0E9044541
:10359400121941EB0501C3E90421D0E9003213609B
:1035A4005A600023C0E9003330BD00BFD0010020C1
:1035B400B3F1FF3F08BFB2F1FF3F2DE9F84F0446D6
:1035C400994615461F467AD08160EFF3118820236F
:1035D40083F31288BFF36F8FB9F1000FDFF8E4A013
:1035E40020DBFFF7BFFFDAE90027013549F10009C5
:1035F4002D1849EBE07306464FF00109C4E9045362
:10360400AD1843EB0707FFF7A5FF0346DFF8B8E063
:10361400DEF804A0EBB9C4E900EACAF80040CEF829
:10362400044028E06FF00103DAE900125B1A4FF05E
:10363400FF3161EB02025B1B62EB0902012B72F1A9
:103644000001BCBF012300224FF00009C0E904328D
:10365400D9E7D3E9041CD4E904208A4270EB0C0BAB
:1036640024DA891A5A686CEB0000C3E90410C4E92F
:10367400003214605C60FFF76DFF84420ED1134B7F
:103684001B685BB9B9F1000F02D1FFF76BFF064667
:10369400304601F096FA0021FEF706FA88F3118805
:1036A400BFF36F8F28463946BDE8F88F521A60EB96
:1036B4000C009A45C4E90420ADD01B68AAE7002594
:1036C4002F46EFE768040020D001002048050020C1
:1036D4002DE9F047EFF31185202383F31288BFF31C
:1036E4006F8FDFF8A0900026C9F800000027FFF7CD
:1036F40031FFDFF89480D9F80030D8E900ECD9170D
:1037040050B1D0E90442A34271EB020A1BDAE41A75
:1037140062EB0102C0E90442002413EB0E034CEBFC
:1037240001012046C8E90031C9F8004001F049FA16
:103734002146FEF7B9F985F31188BFF36F8FBDE811
:10374400F047FFF7BBBE14EB0E024CEBE473C0E989
:103754000467C8E90023FFF70FFF85F31188BFF35F
:103764006F8F83689847EFF31185202383F31288C2
:10377400BFF36F8FD9F800301B1BC9F80030FFF777
:10378400E9FEB8E7480500206804002010B5EFF30F
:103794001184202383F31288BFF36F8FFFF7E2FEB7
:1037A4000346054AD2E90001181841EBE37184F39A
:1037B4001188BFF36F8F10BD68040020F8B50D4E5B
:1037C4000D4C0E4D33680E48984767782B680C48AB
:1037D400984733680B489847022F08D12478E31F91
:1037E4005C425C412B68074898472046F8BD00249A
:1037F400F8E700BFE40100204C050020E0010020B0
:1038040004020020F001002070B51D4E1D4C3368E9
:103814001D4898472378590744BF23F004032370B5
:1038240023789A0705D500F0C1F8237823F0020322
:103834002370164D14482B689847336814489847EA
:10384400637813B1134801F02DFA002304211148C1
:10385400637000F0CBF82B680D48984733680A482A
:1038640098472378DB0705D501F019FA237823F06C
:10387400010323702B680448BDE87040184700BF5B
:10388400E40100204C050020F0010020E0010020AC
:1038940004020020500500202DE9F041FFF78EFFBF
:1038A40018B100242046BDE8F081364F36483B6805
:1038B4009847044620B16FF08F04FFF7A5FFF1E7A6
:1038C400324D2B78D80706D401F0E7F904462B785B
:1038D40043F001032B702E4E2B483368984710B1E8
:1038E400002CE8D0E9E7002CE7D13B68264898474C
:1038F40004460028DFD12B78990706D400F04EF84F
:1039040004462B7843F002032B7033681E48984713
:103914000028E5D1002CD0D13B681B4898470028EB
:10392400C9D13368184895F8008098470028C2D157
:103934003B681848984704460028BCD16B7843B9C3
:1039440018F0010F05D0144801F0AAF90223044627
:103954006B7033680F4898470028C1D1002CACD154
:103964003B68094898470028A5D12B7806485A0790
:103974005CBF43F004032B7033689847002890D051
:1039840099E700BFE4010020F00100204C0500206D
:10399400E001002004020020500500200122024B17
:1039A400002083F880257047540500202DE9F0415C
:1039B4000A4C002526464FF0010803272046C4F888
:1039C40020802777013501F04BF9202D04F12C04D8
:1039D400F4D1002386F88035BDE8F0815405002039
:1039E400014B1B68184700BFD801002010B50A46D8
:1039F400044619B1024B00211B68984710BD00BF53
:103A0400DC0100202DE9F04F43688DB01546804657
:103A1400029383789A0740F10D8100240E78002EDA
:103A240000F00A81252E0BD04B1C03930134414630
:103A34003046029B98470028C0F2F6800399EDE7D0
:103A44004E788B1C252E0393F0D00027B946BB4635
:103A5400BBF11F0F38D8A6F12003102B0AD8DFE8DA
:103A640003F02A0909300909092109090928092D3E
:103A740009091F00A6F13003092B33D92A2E37D1A7
:103A84001BF0400F55F8043B40F08280002BA7BF89
:103A94004BF0200B9946C3F100094BF0280B01E0D1
:103AA4004BF0010B039B13F8016B0393002ECFD152
:103AB40030E04BF0020B4BF0040BF3E74BF0080B38
:103AC400F0E74BF0100BEDE7BBF17F0F19D8A6F12F
:103AD4003003092BD2D81BF0400F03D00A2101FB7D
:103AE4000737DFE70A214BF0200B01FB0939D9E73F
:103AF4002E2E06D11BF0400F40F09E804BF0400B61
:103B0400D0E76C2E31D02BD8682E36D06A2E3CD01C
:103B14004C2E3AD0002F46F02003B8BF2BF04002C1
:103B2400A3F16501BCBF00271FFA82FB022901D95A
:103B3400612B2FD107350727DFF8ACA225F0070545
:103B440008351BF0080F66D00AEB070B56465E4596
:103B540063D1A4EB0A0AA9EB070906EB0A026FE199
:103B6400742E9FD07A2E9DD0D4E71BF0800F18BFFF
:103B74004BF4007B4BF0800B94E71BF4807F18BF61
:103B84004BF4007B4BF4807B8CE74BF4207B89E780
:103B94001F4687E7A6F16301122900F2F080DFE8EF
:103BA40011F013004F00EE00EE00EE00EE004F00A7
:103BB400EE00EE00EE00EE00EE00FE00E900EE0086
:103BC400EE001B00EE00AF0055F8043B01270DF199
:103BD400180A8DF81830B4E755F804AB834BBAF1E2
:103BE400000F08BF9A461BF0400F504614BF3946D9
:103BF4004FF0FF3101F090F80746A2E7414620203C
:103C0400029B984700280FDB013EB742F6D34C4491
:103C1400B146A41B98E74E46F7E7414616F8010B58
:103C2400029B9847002892DA98F8023043F0040384
:103C340088F802304FF0FF3420460DB0BDE8F08F15
:103C44001BF0800F34D01BF4007F2CD0073525F0F7
:103C54000705AA4669685AF8080B2BF010050029D5
:103C6400ADB237DA404245F4806561EB41010DF1B4
:103C7400180B0A235A4601F05BF8A0EB0B030193DF
:103C84006B0662D5019B25F001019F4289B240F386
:103C9400A180002E00F0998015F0100240F09C8065
:103CA400BB460D4623E0AA465AF8040BC117D4E7D5
:103CB400AA461BF4807F5AF8041B01D10846F5E795
:103CC4001BF4007F19BF48B241F3C01108B241F39D
:103CD400C031C2E750EA0103C9D11BF0400FC6D07E
:103CE400002FC4D12BF01102BB46019795B240F2CC
:103CF400064115EA01021CBF0BF1010B00222CE066
:103D04002BF010020A231FFA82FB1BF0800C49D00F
:103D14001BF4007115BF0735AA4625F007055AF8AC
:103D2400040B1EBFAA4669685AF8080B50EA01053D
:103D340045D12BF016051BF0400FADB242D0002F39
:103D440040D12BF01702019795B215F0100248D01C
:103D5400019B002E42D103F1010B29075AD4EB0732
:103D640006D5D9456FDDA9EB0B030199CB465F1846
:103D74005B4649E04BF0100B10237826C5E7782BFF
:103D840004D1C6F1780343F01003BEE74146252071
:103D9400029B98470028FFF647AF023447E6082302
:103DA4000026B2E7AA461BF480715AF8040BBDD072
:103DB4001BF400711ABFC0B2614680B2B6E72BF0A3
:103DC400060295B20DF1180B54E725F01105BB4618
:103DD400ADB28CE70D46B8E73B460D4603F1020B46
:103DE400BBE7DDF804B082E7765D00006F5D00009C
:103DF400CDE9043241462020029B98470028FFF673
:103E040013AF049B059A01339945F1DCA4EB0B0134
:103E14009B46CC180AB341463020029B98470028A1
:103E2400FFF602AF8EB901342744391B019B994236
:103E340024DC1D4655BB019AA9EB0B0955462244C7
:103E44001446914433E0019F92E7023441463046E0
:103E5400029B98470028E7DAE6E640F206410D4265
:103E6400E2D015F0020F04F10104414614BF2B20E7
:103E7400202015F4806F18BF2D20E9E7414630203B
:103E8400029B013498470028CFDACDE606AB013D0A
:103E94004146585D029B98470028CBDAC4E6414668
:103EA4002020029B013498470028FFF6BDAEA9EB01
:103EB4000403002BF3DCC1E57047836800EBC10108
:103EC400B3F5004F2CBF51F8220031F812007047AF
:103ED40000EBC1018068B0F5004F2CBF41F82230DF
:103EE40021F812307047012208B5FFF7E6FFD040F1
:103EF40008BD836800EBC101B3F5004F08D34B68DC
:103F04001AB143F001034B60704723F00103FAE751
:103F14004B881AB143F001034B80704723F001032F
:103F2400FAE753000122FFF7D3BF8368481CB3F5B7
:103F3400004F34BF042308230833A0EBD300B0FAA6
:103F440080F0C0F11F0070472DE9F0410D468668EE
:103F54000446FFF7C8FFB6F5004F014601D3012818
:103F640032D02046FFF7E1FF04EB80010E6996B9D9
:103F74000122E36882401343E36002220D612B4671
:103F840029462046FFF7A4FF032229462046BDE820
:103F9400F041FFF79DBF022231462046FFF78DFF17
:103FA4000746034629462046FFF792FF032233467D
:103FB40029462046FFF78CFF39462B462046FFF75B
:103FC40087FF02223146E1E7BDE8F081B2F5802F98
:103FD4002CBF082304232DE9F0410026D21A8C18A3
:103FE400CD1D25F0070524F00704641BE4080560D3
:103FF40021462846AC60EE60FFF797FF421D920011
:10400400013002F107074FEAD7073146A2F1100247
:1040140005F11000B8BF324600F066FE3A4631465C
:104024002846FFF77EFF3346324631462846FFF7DF
:104034004FFFA4EB0708284631460122FFF759FF3A
:1040440042463946FFF76DFF3B463246394628461D
:10405400FFF73EFF21462846FFF763FF43463246FB
:1040640021462846FFF734FF214628460122FFF760
:1040740040FF3946BDE8F041FFF766BF00207047B6
:104084000FB407B504A951F8040B0191FCF794FB94
:1040940003B05DF804EB04B0704708B5EFF3118387
:1040A400202383F31288BFF36F8FFDF721F9038B6D
:1040B40013F0070305D10368002B0CBF0020032075
:1040C4007047022B05D1408BB0FA80F04009800084
:1040D4007047012B05D10368002B0CBF002005207D
:1040E40070470020704710B50C4600B111B96FF04D
:1040F400150010BD081D00F0B7F80028F9D1A36819
:10410400032BF6D9F3E72DE9F0410D46074619468E
:10411400281D90461E4600F0B8F8044638B13346D0
:10412400424629463846A446BDE8F0416047BDE80A
:10413400F08110B4EFF31182202484F31288BFF3CA
:104144006F8F416110BC0121FCF768BB38B50C4688
:10415400054658B151B10B6843B14B6833B11C22C9
:10416400002100F0C1FD00202C6138BD6FF0150066
:10417400FBE770B505460E46FFF7B5FF041E14DBDA
:10418400EFF31182202383F31288BFF36F8F4FF66E
:10419400FF716B8B2C8B8B4204F0070407D182F3E5
:1041A4001188BFF36F8F6FF00A04204670BD022C94
:1041B4000CD101336B8382F31188BFF36F8F00231B
:1041C400224631462846FFF79EFFEEE7062C14D818
:1041D400DFE804F004131313041A0400002333600B
:1041E4006B683BB9C5E90066ACB902212846FCF707
:1041F40015FBDAE71E606E60F6E782F31188BFF301
:104204006F8F6FF00404D0E782F31188BFF36F8FD0
:104214006FF08504C9E782F31188BFF36F8FC4E799
:1042240010B5EFF31182202383F31288BFF36F8F4D
:10423400048B04F00704022C0AD0012C0CBF6FF08D
:1042440004006FF0850082F31188BFF36F8F08E0DC
:10425400438B013B9BB2438323B92146FCF7DEFA2F
:10426400204610BD2046EEE7034658B1426802F0EE
:104274000302012A03D0032A04D1026812B10020E8
:10428400986070476FF0150070474268034602F06B
:104294000302032A4FF00002816014BF1046006835
:1042A4005A607047704700F01FBD00F010BD014612
:1042B4000068FCF7F7BB08B5FCF724FCBDE8084030
:1042C400FCF744BC00210120FCF7ECBB08B5FCF76B
:1042D40023FFFCF7BFFBFCF7C9FBFCF76FFFFEF7FE
:1042E40081FBD0F8943083F30B8870476FF085001E
:1042F400704761B662B680F31188BFF36F8F704761
:1043040072B6002383F31188BFF36F8FBFF34F8F0F
:1043140030BF62B6BFF36F8F704772B6002383F36A
:104324001188BFF36F8FBFF34F8F20BF80F31188C5
:10433400BFF36F8F62B670470C220369C9B201FBE9
:104344000233186C00F00700704770B5C9B20369F6
:10435400EFF31185202484F31288BFF36F8F0C26AA
:1043640006FB0134246C14F0C00408D0A24206D029
:1043740085F31188BFF36F8F4FF0FF3070BD0122BA
:1043840006FB01331A6485F31188BFF36F8F43680A
:1043940003EBC1035B6898470020EFE78022FFF737
:1043A400D4BFF8B5069F0469C9B2EFF3118620257E
:1043B40085F31288BFF36F8F0C2505FB0144256C30
:1043C40005F0070CBCF1010F0CD1276486F31188AA
:1043D400BFF36F8FC4E90E23436853F83130984715
:1043E4000020F8BD05F0C005AF4286F31188BFF385
:1043F4006F8F0CBF6FF077004FF0FF30F1E713B50C
:1044040080240094FFF7CDFF02B010BD10B41C242B
:104414000069CBB203FB0400002110BC1047104616
:10442400FEF70ABC00F0D1B8FDF780BC4368002059
:104434005B68DB680B607047436802EA01005B68F5
:1044440021EA020158600020996070474368002007
:104454005B6859607047436800205B6899607047E7
:1044640043685A68136821EA03000B405060002037
:104474009360704710B503695868F8B1884219D140
:104484009C680868A142586000D1986000200860C8
:104494002AB15A680A609A68596002B99960002082
:1044A40010E0814206D10868206098688142EDD10D
:1044B4009C60EBE7044600680028F2D1002AE8D1AA
:1044C4006FF0150010BDFDF78DBE08B50220FDF795
:1044D4004DF8002008BD08B5FFF7DEF948B1002308
:1044E40083F31188BFF36F8F0423184602DF6FF044
:1044F400040008BD03460020184700F097BA02469E
:1045040010B5116891B1B1FA81F3C3F11F00012311
:10451400834021EA0303D2E8EF4F8C4204D1C2E87E
:10452400EC3FBCF1000FF6D1EBD110BD6FF00B00E6
:10453400FBE710B50368CB40DB0710D401238B40A5
:10454400026843EA0201D0E8EF4F944204D1C0E884
:10455400EC1FBCF1000FF6D1F2D1002010BD6FF0BA
:104564001500FBE72DE9F04116461F464FF0010800
:1045740000F160404C1E0444C50BE40BA54201D974
:10458400BDE8F08105F00101C5F34700324608FAA1
:1045940001F1B8470135F1E7FDF764BB10B101281B
:1045A40002D07047FDF7C2BBFDF770BC18B10128FB
:1045B40003D100F00CB800F008B8704708B5FDF757
:1045C40099FCBDE80840FDF7F1BBFDF783BBFDF79F
:1045D40025BCF7B51646DDE90847019001A81D463C
:1045E400FDF7C2FC019BB6F1000C18BF4FF0010CA3
:1045F40000EB83000B1E18BF0123002D43EA4C037C
:1046040014BF4FF00C0C4FF0000C002C43EA0C03C9
:1046140014BF4FF4706C4FF0000C002F43EA0C03EE
:1046240014BF4FF4403C4FF0000CD0F8802043EA14
:104634000C0322EA030301B109780EB1367876003F
:1046440019430DB12D78AD0031430CB12478240207
:1046540029430FB13F783F040C433C43C0F88040EA
:1046640003B0F0BD1FB50DF10F03019300238DF8C6
:104674000F101A4619460093FFF7ABFF05B05DF81B
:1046840004FB10B504460846FDF780FC04EB400427
:10469400A08AC0F3401010BD10B504460846FDF7CB
:1046A40075FC04EB4004A08AC0F3400010BD10B5B3
:1046B40004460846FDF76AFC04EB4004A08A400B5C
:1046C40010BD70B5044608461646FDF75FFC083079
:1046D40034F810300D46DA0509D5C3F3432304EB4F
:1046E400C3023146284654F8333052689847A368C9
:1046F4002BB131462846E268BDE87040184770BDCA
:1047040010B504460846FDF741FC04EB4000838ADB
:10471400DA051DD5C3F3432123F4F853838204F14E
:10472400120204F15C0032F8023F13F4807F03D0DC
:10473400C3F3432399420BD08242F4D1002204EB09
:10474400C1035A6004F16400BDE81040FFF7F1BEF4
:1047540010BDF0B504460020012705468446954265
:104764000AD1D4F8403133B10023C4F84031D4F82D
:10477400403140F48030F0BDEBB29B0003F580760D
:104784009B0807FA03F3194208D054F806E0BEF177
:10479400000F03D044F806C0A65918430135DEE7DC
:1047A40038B504460D46FFF76CFFA8B12046FFF765
:1047B40073FF88B92046FFF77AFF012322688340FC
:1047C400C2F80833236803EB8000D0F8103523F0D7
:1047D4000303C0F8103538BD2846BDE83840002131
:1047E400FFF740BF2DE9F0431746044685B008465D
:1047F400FDF7CCFBD7F800800E460546B8F1000F54
:104804001ED02046FFF748FF18B12046FFF739FFB6
:1048140020BB00230DF10F02CDE900338DF80E30DB
:104824008DF80F30304643460DF10E01FFF7D1FEEF
:1048340004EB4502938A23F0020343F001039382BD
:104844007B689BB33146204693F80080D3F80490EC
:10485400FFF722FF28B1B9F1000F1FD06FF0150048
:1048640027E004EB4500838A23F4604323F020030C
:104874008382B9F1000F11D0B8F1030FEED87B6831
:1048840021685B6893F800C04FEA8C031944B8F1BF
:10489400000F11D1C1F81085C1F8108504EB450251
:1048A400938A23F01C0343EA88039382BB684BBBBF
:1048B400002005B0BDE8F083D1F8102522F00302F2
:1048C400C1F8102522681344D3F8102522F4473286
:1048D40022F47C72C3F8102541F6F072D3F8101557
:1048E40002EA061242EA08420A43C3F8102504EB1E
:1048F4004C03A3F86860838A43EA4C3343F02003F3
:104904008382CBE73146D3E900782046FFF7F8FEEF
:10491400002FCDD063689F4206D004F16400FFF7F6
:10492400EEFD002804DAC4E7A3689845F5D1002019
:1049340004EBC003C3E9017804EB4505AB8AC0B2BC
:1049440043EA402343F48073AB82B1E7C0E9031226
:10495400704770B504461546FFF793FE48B1084604
:10496400FDF714FB04EB40040020A38A5B0B2B70BF
:1049740070BD6FF01500FBE790F87800003818BFA1
:1049840001207047FDF72ABB2DE9F3410446174681
:10499400FFF777FE0D462668F0B12046FFF77CFE50
:1049A4008046C8B92046FFF782FE820002F5807374
:1049B40046F80380F35823681344D3F8102542F0D3
:1049C4000102C3F8102527B1012322688340C2F8ED
:1049D400043302B0BDE8F081D6F804332846DB0383
:1049E4005CBF4FF48033C6F80433FDF7CFFA04EB11
:1049F4004004A38AC3F38203042B11D0052B11D0E6
:104A040001A80195FDF7B0FA019BC168D94001F0F6
:104A140001010231284602B0BDE8F041FFF722BE91
:104A24000321F7E70221F5E7FFF7BABE08B1FCF767
:104A34004DBC704710B5436904463BB90020E26899
:104A44004042537843F00103537010BD9847002847
:104A5400F4D00028B8BF4042FF28A8BFFF20E36875
:104A64001870ECE7EFF31183202383F31288BFF36C
:104A74006F8FFEE708B5FFF7F5FF202408B5EFF3C5
:104A8400118384F31288BFF36F8FFFF739FCF6E7C5
:104A940090F90E308B4201D0FEF78ABA002070479D
:104AA400EFF30580003818BF01207047D0E90032C9
:104AB40013605A600023C0E90033704708B5FFF75C
:104AC400F5FF437B23F0020343730023836008BD97
:104AD40038B504460D46FEF7D9F9637B43F002036B
:104AE4006373E5B1A5602B689D4209D16B68C4E985
:104AF40000531C606C6012E06A689A42F6D01B682E
:104B0400002BF3D094F90E2093F90E108A42F3D0BF
:104B14009142F1DD5A68C4E9003214605C6038BD2A
:104B240010B5EFF31184202383F31288BFF36F8F42
:104B3400FEF76AF984F31188BFF36F8F10BD014645
:104B440010B5EFF31184202383F31288BFF36F8F22
:104B5400437B13F0280F0AD183680BB1FFF7AEFF34
:104B64004B7B084623F004034B73FEF74DF984F3A3
:104B74001188BFF36F8F10BD01211838FFF7DFBF15
:104B840070B505460E46FEF73FFBB6F1FF3F08BF82
:104B9400B5F1FF3F0446284612D04FF47A7547F624
:104BA4001120002147F612220023C4FB0501FBF764
:104BB40087FCB0F1004F71F1000128BF6FF0004095
:104BC40070BD08B50246FEF7C5FC70B1D0E90431EA
:104BD4009B1A61EBE272B3F1004F72F1000104DA47
:104BE400002AACBF1846002008BD6FF00040FBE768
:104BF400024638B5EFF31185202383F31288BFF3FF
:104C04006F8F0368CBB1FEF7A5FC04461046FEF790
:104C1400B3FC00224FF000438442C0E9042306D1D0
:104C2400FEF7A0FCFFF7CDFF0021FCF73DFF0020BD
:104C340085F31188BFF36F8F38BD6FF01500F7E768
:104C440008B5FEF7A3FD08BD704710B50446406AD9
:104C540010B1A16A00F029F80020C4E9090010BDD0
:104C640038B50546FFF7F1FF2B7F0446012B0ED024
:104C7400023B012B0ED82B6A012B18BF6FF0960450
:104C84002C220021284600F02FF8204638BD2B6A3C
:104C9400002BF2E76FF09604F2E7002070477047AC
:104CA4000020704700207047704710B5044608B1D3
:104CB400FEF79CFE2046BDE81040FEF791BEFDF7CE
:104CC4006BBF4FF0FF324FF0FF33FDF7EDBE0A44E8
:104CD400431E914200D1704710B511F8014B914227
:104CE40003F8014FF9D110BD02440346934200D1A9
:104CF400704703F8011BF9E710B50139044632B1D6
:104D040011F8013F013A00F8013B002BF7D10021D3
:104D1400FFF7EAFF204610BD0246014410B58A425F
:104D2400134603D01C780132002CF8D1181A10BD98
:104D3400F0B5C3F13707044603F01F031046FFB272
:104D4400082BE6B232D0102B3DD06508A40845EA02
:104D5400C17544EA81748A082D1942EB510229096C
:104D640041EA02716D1842EB1212290A41EA02610A
:104D74006D1842EB1222290C41EA02416D1842EBF4
:104D84001242AD1842F10002EC0844EA4274D10820
:104D940004EB8402A6EB4205EDB2092D0CD90134D3
:104DA400A5F10A0541F10001EDB212E0E40806F0B4
:104DB400070544EA4174C908303554EA010200F891
:104DC400015BBDD1F0BD240906F00F0544EA01746E
:104DD4000909092D84BFED19EDB2EDE7014800681A
:084DE40070470000700400207C
:084DEC000CB7FF7F010000007D
:104DF4002912000000000000C51900000000000096
:104E0400000000003C4E000000000000744E000052
:104E140000000000584E0000CF44000000000000D5
:104E24000512000000000000DB4400000000000048
:084E34003D0A0000000000002F
:104E3C002F5D000064580000BC570000E801002002
:104E4C0094040020BD130000000000003C5D000035
:104E5C007458000098570000EA010020E804002074
:104E6C00B917000000000000485D000088580000E1
:104E7C0098570000EC010020F4040020B917000042
:044E8C000000000022
:104E900000000000C942000000000000C9420000FC
:104EA00000000000C942000000000000C9420000EC
:104EB00000000000C942000000000000C9420000DC
:104EC00000000000C942000000000000C9420000CC
:104ED00000000000C942000000000000C9420000BC
:104EE00000000000C942000000000000C9420000AC
:104EF00000000000C942000000000000C94200009C
:104F000000000000C942000000000000C94200008B
:104F100000000000C942000000000000C94200007B
:104F200000000000C942000000000000C94200006B
:104F300000000000C942000000000000C94200005B
:104F400000000000C942000000000000C94200004B
:104F500000000000C942000000000000C94200003B
:104F600000000000C942000000000000C94200002B
:104F700000000000C942000000000000C94200001B
:104F800000000000C942000000000000C94200000B
:104F900000000000C942000000000000C9420000FB
:104FA00000000000C942000000000000C9420000EB
:104FB00000000000C942000000000000C9420000DB
:104FC00000000000C942000000000000C9420000CB
:104FD00000000000C942000000000000C9420000BB
:104FE00000000000C942000000000000C9420000AB
:104FF00000000000C942000000000000C94200009B
:1050000000000000C942000000000000C94200008A
:1050100000000000C942000000000000C94200007A
:1050200000000000C942000000000000C94200006A
:1050300000000000C942000000000000C94200005A
:1050400000000000C942000000000000C94200004A
:1050500000000000C942000000000000C94200003A
:1050600000000000C942000000000000C94200002A
:1050700000000000C942000000000000C94200001A
:1050800000000000C942000000000000C94200000A
:1050900000000000C942000000000000C9420000FA
:1050A00000000000C942000000000000C9420000EA
:1050B00000000000C942000000000000C9420000DA
:1050C00000000000C942000000000000C9420000CA
:1050D00000000000C942000000000000C9420000BA
:1050E00000000000C942000000000000C9420000AA
:1050F00000000000C942000000000000C94200009A
:1051000000000000C942000000000000C942000089
:1051100000000000C942000000000000C942000079
:1051200000000000C942000000000000C942000069
:1051300000000000C942000000000000C942000059
:1051400000000000C942000000000000C942000049
:1051500000000000C942000000000000C942000039
:1051600000000000C942000000000000C942000029
:1051700000000000C942000000000000C942000019
:1051800000000000C942000000000000C942000009
:1051900000000000C942000000000000C9420000F9
:1051A00000000000C942000000000000C9420000E9
:1051B00000000000C942000000000000C9420000D9
:1051C00000000000C942000000000000C9420000C9
:1051D00000000000C942000000000000C9420000B9
:1051E00000000000C942000000000000C9420000A9
:1051F00000000000C942000000000000C942000099
:1052000000000000C942000000000000C942000088
:1052100000000000C942000000000000C942000078
:1052200000000000C942000000000000C942000068
:1052300000000000C942000000000000C942000058
:1052400000000000C942000000000000C942000048
:1052500000000000C942000000000000C942000038
:1052600000000000C942000000000000C942000028
:1052700000000000C942000000000000C942000018
:1052800000000000C942000000000000C942000008
:1052900000000000C942000000000000C9420000F8
:1052A00000000000C942000000000000C9420000E8
:1052B00000000000C942000000000000C9420000D8
:1052C00000000000C942000000000000C9420000C8
:1052D00000000000C942000000000000C9420000B8
:1052E00000000000C942000000000000C9420000A8
:1052F00000000000C942000000000000C942000098
:1053000000000000C942000000000000C942000087
:1053100000000000C942000000000000C942000077
:1053200000000000C942000000000000C942000067
:1053300000000000C942000000000000C942000057
:1053400000000000C942000000000000C942000047
:1053500000000000C942000000000000C942000037
:1053600000000000C942000000000000C942000027
:1053700000000000C942000000000000C942000017
:1053800000000000C942000000000000C942000007
:1053900000000000C942000000000000C9420000F7
:1053A00000000000C942000000000000C9420000E7
:1053B00000000000C942000000000000C9420000D7
:1053C00000000000C942000000000000C9420000C7
:1053D00000000000C942000000000000C9420000B7
:1053E00000000000C942000000000000C9420000A7
:1053F00000000000C942000000000000C942000097
:1054000000000000C942000000000000C942000086
:1054100000000000C942000000000000C942000076
:1054200000000000C942000000000000C942000066
:1054300000000000C942000000000000C942000056
:1054400000000000C942000000000000C942000046
:1054500000000000C942000000000000C942000036
:1054600000000000C942000000000000C942000026
:1054700000000000C942000000000000C942000016
:1054800000000000C942000000000000C942000006
:1054900000000000C942000000000000C9420000F6
:1054A00000000000C942000000000000C9420000E6
:1054B00000000000C942000000000000C9420000D6
:1054C00000000000C942000000000000C9420000C6
:1054D00000000000C942000000000000C9420000B6
:1054E00000000000C942000000000000C9420000A6
:1054F00000000000C942000000000000C942000096
:1055000000000000C942000000000000C942000085
:1055100000000000C942000000000000C942000075
:1055200000000000C942000000000000C942000065
:1055300000000000C942000000000000C942000055
:1055400000000000C942000000000000C942000045
:1055500000000000C942000000000000C942000035
:1055600038010020CB44000000000000C9420000C8
:1055700000000000C942000000000000C942000015
:1055800000000000C942000000000000C942000005
:1055900000000000C942000000000000C9420000F5
:1055A000A9270000F944000000000000C9420000E3
:1055B00000000000C942000000000000C9420000D5
:1055C00000000000C942000000000000C9420000C5
:1055D00000000000C942000000000000C9420000B5
:1055E00000000000C942000000000000C9420000A5
:1055F00000000000C942000000000000C942000095
:1056000000000000C942000000000000C942000084
:1056100000000000C942000000000000C942000074
:1056200000000000C942000000000000C942000064
:1056300000000000C942000000000000C942000054
:1056400000000000C942000000000000C942000044
:1056500000000000C942000000000000C942000034
:1056600000000000C942000000000000C942000024
:1056700000000000C942000000000000C942000014
:1056800000000000C942000000000000C942000004
:1056900000000000C942000000000000C9420000F4
:1056A00000000000C942000000000000C9420000E4
:1056B00000000000C942000000000000C9420000D4
:1056C00000000000C942000000000000C9420000C4
:1056D00000000000C942000000000000C9420000B4
:1056E00000000000C942000000000000C9420000A4
:1056F000BC000020CB44000000000000C9420000B4
:10570000C1450000F944000000000000C94200004B
:1057100000000000C942000000000000C942000073
:1057200000000000C942000000000000C942000063
:1057300000000000C942000000000000C942000053
:1057400000000000C942000000000000C942000043
:1057500000000000C942000000000000C942000033
:1057600000000000C942000000000000C942000023
:1057700000000000C942000000000000C942000013
:1057800000000000C942000000000000C942000003
:0857900000000000C942000006
:1057980001180000314400003D440000514400005D
:1057A8005B44000065440000651600007944000071
:0457B80000000000ED
:1057BC0015140000A1430000034400000000000089
:0C57CC003D430000000000000000000051
:1057D800040000000F0000000100000008000000A5
:1057E8002000000060000000700000000D000000B4
:1057F8000C0000000E0000005000000074000000C3
:10580800A8000000FFFFFFFFFFFFFFFFFFFFFFFFF4
:04581800FFFFFFFF90
:10582000050000000400000001000000000000006E
:105830000338FDD8704700000000000000000000A1
:105840000338FDD870470000000000000000000091
:105850000338FDD870470000791300004913000099
:1058600000000000C9140000491400002D4400008D
:10587000294400001F00000000A01040BC000020D0
:105880000000000000000000FFFFFFFF00820D404D
:1058900038010020000000000100000008000000A6
:1058A000020000000400000001000000F44D0000B0
:1058B000044E00001C4E0000244E0000344E000038
:1058C0003C4E00002A2A2A20426F6F74696E6720BE
:1058D0006E524620436F6E6E6563742053444B20B6
:1058E00076332E332E302D6261313637643966338C
:1058F000646234202A2A2A0A002A2A2A2055736937
:105900006E67205A6570687972204F532076342E66
:10591000332E39392D666439323034613032643592
:1059200032202A2A2A0A0072302F61313A20203090
:105930007825303878202072312F61323A2020309B
:105940007825303878202072322F61333A20203089
:1059500078253038780A0072332F61343A202030AD
:105960007825303878207231322F69703A20203013
:105970007825303878207231342F6C723A202030FC
:1059800078253038780A0020787073723A202030F9
:1059900078253038780A004661756C74696E672026
:1059A000696E737472756374696F6E20616464727A
:1059B00065737320287231352F7063293A2030784F
:1059C000253038780A00556E68616E646C65642015
:1059D0004952516E3A2025640A002A2A2A2A2A208E
:1059E0005553414745204641554C54202A2A2A2ADE
:1059F0002A0A0020204469766973696F6E206279F3
:105A0000207A65726F0A002020556E616C69676E9E
:105A10006564206D656D6F72792061636365737372
:105A20000A002020537461636B206F766572666C88
:105A30006F772028636F6E7465787420617265617A
:105A4000206E6F742076616C6964290A0020204EF4
:105A50006F20636F70726F636573736F7220696E0E
:105A6000737472756374696F6E730A002020496CD9
:105A70006C6567616C206C6F6164206F66204558AF
:105A8000435F52455455524E20696E746F20504307
:105A90000A002020496C6C6567616C207573652075
:105AA0006F662074686520455053520A00202041DB
:105AB0007474656D707420746F2065786563757497
:105AC0006520756E646566696E656420696E7374C1
:105AD00072756374696F6E0A002A2A2A2A2A204284
:105AE0005553204641554C54202A2A2A2A2A0A0076
:105AF0002020537461636B696E67206572726F72E8
:105B00000A002020556E737461636B696E672065AF
:105B100072726F720A00202050726563697365208B
:105B20006461746120627573206572726F720A001D
:105B300020204246415220416464726573733A20CA
:105B4000307825780A002020496D7072656369738A
:105B500065206461746120627573206572726F7272
:105B60000A002020496E737472756374696F6E2029
:105B7000627573206572726F720A002A2A2A2A2AB5
:105B8000204D5055204641554C54202A2A2A2A2A75
:105B90000A002020537461636B696E67206572721E
:105BA0006F722028636F6E7465787420617265610E
:105BB000206D69676874206265206E6F742076615D
:105BC0006C6964290A002020446174612041636388
:105BD0006573732056696F6C6174696F6E0A00207B
:105BE000204D4D46415220416464726573733A20E2
:105BF000307825780A002020496E737472756374BA
:105C0000696F6E204163636573732056696F6C61C1
:105C100074696F6E0A00526573657276656420451B
:105C20007863657074696F6E2028005370757269AF
:105C30006F757320696E746572727570742028496F
:105C400052512000535053454C20696E20746872A5
:105C5000656164206D6F646520646F6573206E6F8D
:105C60007420696E646963617465205053500A0042
:105C70002A2A2A2A2A2048415244204641554C5477
:105C8000202A2A2A2A2A0A002020427573206661C7
:105C9000756C74206F6E20766563746F722074610A
:105CA000626C6520726561640A002020446562753B
:105CB00067206576656E740A0020204661756C74F5
:105CC00020657363616C6174696F6E20287365650C
:105CD0002062656C6F77290A00415243485F45583E
:105CE00043455054207769746820726561736F6E04
:105CF0002025780A0A002A2A2A2A2A204465627561
:105D000067206D6F6E69746F72206578636570745B
:105D1000696F6E202A2A2A2A2A0A002A2A2A2A2A6F
:105D200020257320256429202A2A2A2A2A0A00638A
:105D30006C6F636B40313065303030006770696F75
:105D400040313061303030006770696F4064383204
:105D50003030000005252525252525252525252547
:105D6000252525000169646C65006D61696E002858
:105D70006E756C6C29002A666C6F61742A000000D5
:105D8000000000007F000000000000000000000094
:105D90000000000000000000000000000000000003
:105DA00000000000000000000000000000000000F3
:105DB00000000000000000000000000000000000E3
:105DC00000000000000000000000000000000000D3
:105DD00000000000000000000000000000000000C3
:105DE00000000000000000000000000000000000B3
:105DF00000000000000000000000000000000000A3
:105E00000000000000000000000000000000000092
:105E10000000000000000000000000000000000082
:105E20000000000000000000000000000000000072
:105E300000000000000000008140000000C0104091
:105E40000000000000000000000000000000000052
:105E50000000000000000000000000000000000042
:105E60000000000000000000000000000000000032
:105E70000000000000000000000000000000000022
:105E80000000000000000000000000000000000012
:105E90000000000000000000000000000000000002
:105EA00000000000000000000000000000000000F2
:105EB000000000000001000000A00D4000000000F4
:105EC00000000000000000000000000000000000D2
:105ED00000000000000000000000000000000000C2
:105EE00000000000000000000000000000000000B2
:105EF00000000000000000000000000000000000A2
:105F00000000000000000000000000000000000091
