:10000000F0420020810400008F08000085080000F5
:1000100087080000890800008B0800008D08000098
:100020000000000000000000000000009108000037
:1000300093080000000000009508000097080000E9
:1000400000000000000000000000000000000000B0
:1000500000000000000000000000000000000000A0
:100060000000000000000000000000000000000090
:100070000000000000000000000000000000000080
:100080000000000000000000000000000000000070
:100090000000000000000000000000000000000060
:1000A0000000000000000000000000000000000050
:1000B00099080000990800009908000099080000BC
:1000C0000000000000000000000000000000000030
:1000D0000000000000000000000000000000000020
:1000E0000000000000000000000000000000000010
:1000F0000000000000000000000000000000000000
:1001000000000000000000000000000000000000EF
:1001100000000000000000000000000000000000DF
:1001200000000000000000000000000000000000CF
:1001300000000000000000000000000000000000BF
:10014000990800009908000000000000000000006D
:10015000000000000000000099080000990800005D
:1001600099080000000000009908000099080000AC
:1001700099080000000000000000000000000000DE
:1001800000000000000000009908000000000000CE
:10019000990800009908000000000000000000001D
:1001A00099080000000000000000000000000000AE
:1001B000000000000000000000000000000000003F
:1001C000000000000000000000000000000000002F
:1001D000000000000000000000000000000000001F
:1001E000000000000000000000000000000000000F
:1001F00000000000000000000000000000000000FF
:1002000000000000000000000000000000000000EE
:1002100000000000000000000000000000000000DE
:1002200000000000000000000000000000000000CE
:1002300000000000000000000000000000000000BE
:10024000990800000000000000000000000000000D
:10025000000000009908000000000000990800005C
:10026000990800009908000099080000990800000A
:10027000000000000000000000000000000000007E
:10028000000000000000000000000000000000006E
:10029000000000000000000000000000000000005E
:1002A000000000000000000000000000000000004E
:1002B000000000000000000000000000000000003E
:1002C000000000000000000000000000000000002E
:1002D000000000000000000000000000000000001E
:1002E000000000000000000000000000000000000E
:1002F00000000000000000000000000000000000FE
:1003000000000000000000000000000000000000ED
:1003100000000000000000000000000000000000DD
:1003200000000000000000000000000000000000CD
:1003300000000000000000000000000000000000BD
:10034000990800000000000000000000000000000C
:10035000000000000000000099080000990800005B
:100360009908000099080000990800009908000009
:10037000990800009908000099080000000000009A
:1003800099080000990800009908000099080000E9
:1003900099080000990800009908000099080000D9
:1003A000000000000000000099080000990800000B
:1003B00099080000990800000000000000000000FB
:1003C00099080000990800009908000099080000A9
:1003D00099080000990800000000000000000000DB
:1003E000000000000000000000000000000000000D
:1003F00000000000000000000000000000000000FD
:1004000000000000000000000000000000000000EC
:1004100000000000000000000000000000000000DC
:1004200000000000000000000000000000000000CC
:1004300000000000000000000000000000000000BC
:10044000990800000000000000000000000000000B
:1004500099080000990800009908000000000000B9
:10046000990800009908000000000000000000004A
:08047000990800009908000042
:08047800080100000100000072
:1004800008B5174B83F30988A3F5005383F30A8853
:1004900083F30B8800F098FA124A0AE0106851685A
:1004A00050F8230041F82300013391688B42F5D3C3
:1004B0000C320D4B9A4201D20023F6E70B4A08E0BA
:1004C0001168002041F82300013351688B42F7D3B3
:1004D0000832074B9A4201D20023F6E700F054F8A5
:1004E000F0420020180B0000480B0000480B0000F1
:1004F000600B00000348044B834202D0034B03B15E
:100500001847704700000020000000200000000095
:10051000064B0749C91A891048BF0131491003D059
:10052000044B0BB101481847704700BF0000002082
:10053000000000200000000010B5064C237843B9ED
:10054000FFF7D8FF044B13B10448AFF30080012339
:10055000237010BD0000002000000000140B0000FC
:1005600008B5044B1BB104490448AFF30080BDE853
:100570000840CDE70000000004000020140B00003C
:10058000A3F5803A704700BF154B002B08BF114BF5
:100590009D46FFF7F5FF00218B460F461148124A92
:1005A000121A00F025F80C4B002B00D098470B4B8B
:1005B000002B00D098470020002104000D000B48BC
:1005C00000F09EF800F066F82000290000F044F9E1
:1005D00000F088F8000008000000000000000000A3
:1005E0000000022000000020EC0200200D070000A7
:1005F00070B5860747D0541E002A3ED0CAB20346C3
:1006000001E0013C39D303F8012B9D07F9D1032CFC
:100610002CD9CDB20F2C05EB052505EB054535D9B9
:10062000A4F1100C03F1100E1A462CF00F064FEA3D
:100630001C1CB644C2E90055C2E90255103272458D
:10064000F8D10CF1010214F00C0F04F00F0C03EBC5
:10065000021213D0ACF1040323F003030433134458
:1006600042F8045B9342FBD10CF003042CB1C9B2F5
:100670001C4403F8011BA342FBD170BD6446134622
:10068000002CF4D1F9E703461446C0E71A46A44605
:10069000E0E700BF0F4B70B50F4DAB42A3EB050673
:1006A00007D0B6100024013455F8043B9847A64201
:1006B000F9D80A4D00F01CFA094B5E1BAB424FEA19
:1006C000A60606D00024013455F8043B9847A642FC
:1006D000F9D870BDFC0A0000FC0A0000FC0A00000A
:1006E000040B000008B50021044600F023F8034B7A
:1006F0001B6803B19847204600F0F8F9E802002093
:10070000002301461A46184600F074B838B5074D64
:10071000074C2C1BA41005D0013C55F8043D98470C
:10072000002CF9D1BDE8384000F0ECB9140B000002
:10073000100B00002DE9F04F284F83B03E68019068
:1007400056B38B464FF000094FF001087468651EE0
:1007500022D4013406EB8404BBF1000F1FD173686F
:100760002268013BAB420CBF7560C4F800907AB1BF
:1007700008FA05FCD6F88811D6F804A01CEA010F87
:1007800018D1904771683A68514520D1B2421ED1C4
:10079000013D043C6B1CDFD103B0BDE8F08FD4F801
:1007A00000315B45DBD0013D043C6A1CF7D103B04E
:1007B000BDE8F08FD6F88C31D4F880101CEA030F16
:1007C00009D10198904771683A685145DED0002AF6
:1007D000E2D01646BAE708469047D3E71C0000204F
:1007E000024B13B10248FFF78BBF704700000000B7
:1007F0000D07000070B4164D2C681CB365681F2DE2
:1008000023DC38B96B1C00200235636044F82510E6
:1008100070BC704704EB850C0228CCF888204FF0A0
:100820000102D4F8886102FA05F246EA0206C4F829
:100830008861CCF80831E5D1D4F88C311343C4F881
:100840008C31DFE7034C2C60D8E74FF0FF30DFE757
:100850001C0000202000002008490120C1F80006EB
:10086000074B0022C3F80825C3F81825C3F80C2548
:10087000C3F81C25C1F8000520BFFDE70000125099
:1008800000F00C50FEE7FEE7FEE7FEE7FEE7FEE7BE
:10089000FEE7FEE7FEE7FEE7FEE70000074BD3F8C2
:1008A0004023D3F844331C2A01D000207047012B89
:1008B00001D0002070470120704700BF00C0FF003A
:1008C000074BD3F84023D3F844331C2A01D000202F
:1008D0007047012B01D0002070470120704700BFF6
:1008E00000C0FF00044BD3F840331C2B01D0002084
:1008F00070470120704700BF00C0FF00074BD3F8CE
:100900004023D3F844331C2A01D000207047012B28
:1009100001D0002070470120704700BF00C0FF00D9
:10092000036813F0020F0DD0036813F0010F0DD010
:10093000074B0922C3F80C250F22C3F80425012216
:100940001A60FEE7034B0360EF3B0360704700BF94
:1009500000801050F000FA50036813F0020F0DD021
:10096000036813F0010F0DD0074B0922C3F80C25C3
:100970000F22C3F8042501221A60FEE7034B03602F
:10098000EF3B0360704700BF00801050F000FA504A
:1009900008B50848FFF7C4FF0748FFF7C1FF07483D
:1009A000FFF7DAFF0648FFF7D7FF0648FFF7B8FF63
:1009B00008BD00BF00C50D5008C50D5010C50D5035
:1009C00018C50D5000C70D5008B53E4B0122C3F8A5
:1009D0000028FFF787FF18B13B4B0122C3F80C2416
:1009E000FFF7D6FF394AD2F88C3043F44063C2F89F
:1009F0008C30002309E0364A03F1800152F83100BF
:100A000002EBC1025268026001333F2B0DD803F1A3
:100A100080022F4951F83220B2F1FF3F05D003F197
:100A2000800251F83220002AE5D1264BD3F8403419
:100A30001BB9244BC822C3F84024FFF741FF48B13B
:100A4000234BD3F83423234B9A4203D81D4B224A1D
:100A5000C3F84026FFF752FF18B1204B204AC3F8D5
:100A6000AC27FFF71BFF48B1164B3422C3F82426EE
:100A7000D3F83C2622F40022C3F83C26194BD3F8C5
:100A8000003613F0010F04D0164B6FF00102C3F8CB
:100A9000002615490323C1F818350C4BD3F88C20D8
:100AA00042F44062C3F88C20D3F8882042F47002EC
:100AB000C3F88820BFF34F8FBFF36F8F0023C1F8B7
:100AC000A03508BD000012500030055000ED00E0D8
:100AD00000C0FF00001D0A1840E0A91E00A0085039
:100AE00078000A0400E0105000B00450FEE700BF98
:100AF000F8B500BFF8BC08BC9E467047E10700008F
:100B000061050000F8B500BFF8BC08BC9E46704700
:080B100039050000000000009F
:100B1800600B00000000002000000000600B0000D7
:100B28000000002000000000600B00000000002012
:100B380000000000600B0000000000200000000022
:100B480000000020BB000000EC02002000000000B4
:080B5800EC0200200000000087
:040000030000048174
:00000001FF
